{
  "_format": "hh-sol-artifact-1",
  "contractName": "DAOContract",
  "sourceName": "contracts/DAOContract.sol",
  "abi": [
    {
      "inputs": [],
      "stateMutability": "nonpayable",
      "type": "constructor"
    },
    {
      "inputs": [
        {
          "internalType": "address",
          "name": "owner",
          "type": "address"
        }
      ],
      "name": "OwnableInvalidOwner",
      "type": "error"
    },
    {
      "inputs": [
        {
          "internalType": "address",
          "name": "account",
          "type": "address"
        }
      ],
      "name": "OwnableUnauthorizedAccount",
      "type": "error"
    },
    {
      "anonymous": false,
      "inputs": [
        {
          "indexed": true,
          "internalType": "address",
          "name": "previousOwner",
          "type": "address"
        },
        {
          "indexed": true,
          "internalType": "address",
          "name": "newOwner",
          "type": "address"
        }
      ],
      "name": "OwnershipTransferred",
      "type": "event"
    },
    {
      "anonymous": false,
      "inputs": [
        {
          "indexed": true,
          "internalType": "uint256",
          "name": "id",
          "type": "uint256"
        },
        {
          "indexed": false,
          "internalType": "string",
          "name": "title",
          "type": "string"
        },
        {
          "indexed": false,
          "internalType": "string",
          "name": "description",
          "type": "string"
        },
        {
          "indexed": false,
          "internalType": "uint256",
          "name": "deadline",
          "type": "uint256"
        }
      ],
      "name": "ProposalCreated",
      "type": "event"
    },
    {
      "anonymous": false,
      "inputs": [
        {
          "indexed": true,
          "internalType": "uint256",
          "name": "id",
          "type": "uint256"
        },
        {
          "indexed": false,
          "internalType": "bool",
          "name": "passed",
          "type": "bool"
        }
      ],
      "name": "ProposalExecuted",
      "type": "event"
    },
    {
      "anonymous": false,
      "inputs": [
        {
          "indexed": true,
          "internalType": "uint256",
          "name": "id",
          "type": "uint256"
        },
        {
          "indexed": true,
          "internalType": "address",
          "name": "voter",
          "type": "address"
        },
        {
          "indexed": false,
          "internalType": "bool",
          "name": "support",
          "type": "bool"
        },
        {
          "indexed": false,
          "internalType": "uint256",
          "name": "weight",
          "type": "uint256"
        }
      ],
      "name": "Voted",
      "type": "event"
    },
    {
      "inputs": [
        {
          "internalType": "string",
          "name": "title",
          "type": "string"
        },
        {
          "internalType": "string",
          "name": "description",
          "type": "string"
        }
      ],
      "name": "createProposal",
      "outputs": [],
      "stateMutability": "nonpayable",
      "type": "function"
    },
    {
      "inputs": [
        {
          "internalType": "uint256",
          "name": "proposalId",
          "type": "uint256"
        }
      ],
      "name": "executeProposal",
      "outputs": [],
      "stateMutability": "nonpayable",
      "type": "function"
    },
    {
      "inputs": [
        {
          "internalType": "address",
          "name": "",
          "type": "address"
        },
        {
          "internalType": "uint256",
          "name": "",
          "type": "uint256"
        }
      ],
      "name": "hasVoted",
      "outputs": [
        {
          "internalType": "bool",
          "name": "",
          "type": "bool"
        }
      ],
      "stateMutability": "view",
      "type": "function"
    },
    {
      "inputs": [],
      "name": "nextProposalId",
      "outputs": [
        {
          "internalType": "uint256",
          "name": "",
          "type": "uint256"
        }
      ],
      "stateMutability": "view",
      "type": "function"
    },
    {
      "inputs": [],
      "name": "owner",
      "outputs": [
        {
          "internalType": "address",
          "name": "",
          "type": "address"
        }
      ],
      "stateMutability": "view",
      "type": "function"
    },
    {
      "inputs": [
        {
          "internalType": "uint256",
          "name": "",
          "type": "uint256"
        }
      ],
      "name": "proposals",
      "outputs": [
        {
          "internalType": "uint256",
          "name": "id",
          "type": "uint256"
        },
        {
          "internalType": "string",
          "name": "title",
          "type": "string"
        },
        {
          "internalType": "string",
          "name": "description",
          "type": "string"
        },
        {
          "internalType": "uint256",
          "name": "votesFor",
          "type": "uint256"
        },
        {
          "internalType": "uint256",
          "name": "votesAgainst",
          "type": "uint256"
        },
        {
          "internalType": "uint256",
          "name": "deadline",
          "type": "uint256"
        },
        {
          "internalType": "bool",
          "name": "executed",
          "type": "bool"
        }
      ],
      "stateMutability": "view",
      "type": "function"
    },
    {
      "inputs": [],
      "name": "renounceOwnership",
      "outputs": [],
      "stateMutability": "nonpayable",
      "type": "function"
    },
    {
      "inputs": [
        {
          "internalType": "address",
          "name": "newOwner",
          "type": "address"
        }
      ],
      "name": "transferOwnership",
      "outputs": [],
      "stateMutability": "nonpayable",
      "type": "function"
    },
    {
      "inputs": [
        {
          "internalType": "uint256",
          "name": "proposalId",
          "type": "uint256"
        },
        {
          "internalType": "bool",
          "name": "support",
          "type": "bool"
        }
      ],
      "name": "vote",
      "outputs": [],
      "stateMutability": "nonpayable",
      "type": "function"
    },
    {
      "inputs": [],
      "name": "votingPeriod",
      "outputs": [
        {
          "internalType": "uint256",
          "name": "",
          "type": "uint256"
        }
      ],
      "stateMutability": "view",
      "type": "function"
    }
  ],
  "bytecode": "0x60806040526203f4806004553480156200001857600080fd5b5033600073ffffffffffffffffffffffffffffffffffffffff168173ffffffffffffffffffffffffffffffffffffffff16036200008f5760006040517f1e4fbdf7000000000000000000000000000000000000000000000000000000008152600401620000869190620001b0565b60405180910390fd5b620000a081620000a760201b60201c565b50620001cd565b60008060009054906101000a900473ffffffffffffffffffffffffffffffffffffffff169050816000806101000a81548173ffffffffffffffffffffffffffffffffffffffff021916908373ffffffffffffffffffffffffffffffffffffffff1602179055508173ffffffffffffffffffffffffffffffffffffffff168173ffffffffffffffffffffffffffffffffffffffff167f8be0079c531659141344cd1fd0a4f28419497f9722a3daafe3b4186f6b6457e060405160405180910390a35050565b600073ffffffffffffffffffffffffffffffffffffffff82169050919050565b600062000198826200016b565b9050919050565b620001aa816200018b565b82525050565b6000602082019050620001c760008301846200019f565b92915050565b6114c180620001dd6000396000f3fe608060405234801561001057600080fd5b506004361061009e5760003560e01c806365e481e21161006657806365e481e214610161578063715018a61461017d5780638da5cb5b14610187578063c9d27afe146101a5578063f2fde38b146101c15761009e565b8063013cf08b146100a357806302a251a3146100d95780630d61b519146100f75780632ab09d14146101135780634254582514610131575b600080fd5b6100bd60048036038101906100b89190610a3c565b6101dd565b6040516100d09796959493929190610b23565b60405180910390f35b6100e161033c565b6040516100ee9190610ba0565b60405180910390f35b610111600480360381019061010c9190610a3c565b610342565b005b61011b61045b565b6040516101289190610ba0565b60405180910390f35b61014b60048036038101906101469190610c19565b610461565b6040516101589190610c59565b60405180910390f35b61017b60048036038101906101769190610da9565b610490565b005b6101856105d9565b005b61018f6105ed565b60405161019c9190610e30565b60405180910390f35b6101bf60048036038101906101ba9190610e77565b610616565b005b6101db60048036038101906101d69190610eb7565b610819565b005b600160205280600052604060002060009150905080600001549080600101805461020690610f13565b80601f016020809104026020016040519081016040528092919081815260200182805461023290610f13565b801561027f5780601f106102545761010080835404028352916020019161027f565b820191906000526020600020905b81548152906001019060200180831161026257829003601f168201915b50505050509080600201805461029490610f13565b80601f01602080910402602001604051908101604052809291908181526020018280546102c090610f13565b801561030d5780601f106102e25761010080835404028352916020019161030d565b820191906000526020600020905b8154815290600101906020018083116102f057829003601f168201915b5050505050908060030154908060040154908060050154908060060160009054906101000a900460ff16905087565b60045481565b600060016000838152602001908152602001600020905080600501544210156103a0576040517f08c379a000000000000000000000000000000000000000000000000000000000815260040161039790610f90565b60405180910390fd5b8060060160009054906101000a900460ff16156103f2576040517f08c379a00000000000000000000000000000000000000000000000000000000081526004016103e990610ffc565b60405180910390fd5b60018160060160006101000a81548160ff021916908315150217905550600081600401548260030154119050827f948f4a9cd986f1118c3fbd459f7a22b23c0693e1ca3ef06a6a8be5aa7d39cc038260405161044e9190610c59565b60405180910390a2505050565b60035481565b60026020528160005260406000206020528060005260406000206000915091509054906101000a900460ff1681565b61049861089f565b6000600360008154809291906104ad9061104b565b9190505590506040518060e001604052808281526020018481526020018381526020016000815260200160008152602001600454426104ec9190611093565b8152602001600015158152506001600083815260200190815260200160002060008201518160000155602082015181600101908161052a9190611273565b5060408201518160020190816105409190611273565b50606082015181600301556080820151816004015560a0820151816005015560c08201518160060160006101000a81548160ff021916908315150217905550905050807f3f86606f711a448daf3ec6c75d04db9515b24b20b64a68406f971eb5a4e16187848460016000868152602001908152602001600020600501546040516105cc93929190611345565b60405180910390a2505050565b6105e161089f565b6105eb6000610926565b565b60008060009054906101000a900473ffffffffffffffffffffffffffffffffffffffff16905090565b600060016000848152602001908152602001600020905080600501544210610673576040517f08c379a000000000000000000000000000000000000000000000000000000000815260040161066a906113d6565b60405180910390fd5b600260003373ffffffffffffffffffffffffffffffffffffffff1673ffffffffffffffffffffffffffffffffffffffff168152602001908152602001600020600084815260200190815260200160002060009054906101000a900460ff1615610711576040517f08c379a000000000000000000000000000000000000000000000000000000000815260040161070890611442565b60405180910390fd5b6001600260003373ffffffffffffffffffffffffffffffffffffffff1673ffffffffffffffffffffffffffffffffffffffff168152602001908152602001600020600085815260200190815260200160002060006101000a81548160ff02191690831515021790555060006001905082156107a6578082600301600082825461079a9190611093565b925050819055506107c2565b808260040160008282546107ba9190611093565b925050819055505b3373ffffffffffffffffffffffffffffffffffffffff16847f7c2de587c00d75474a0c6c6fa96fd3b45dc974cd4e8a75f712bb84c950dce1b5858460405161080b929190611462565b60405180910390a350505050565b61082161089f565b600073ffffffffffffffffffffffffffffffffffffffff168173ffffffffffffffffffffffffffffffffffffffff16036108935760006040517f1e4fbdf700000000000000000000000000000000000000000000000000000000815260040161088a9190610e30565b60405180910390fd5b61089c81610926565b50565b6108a76109ea565b73ffffffffffffffffffffffffffffffffffffffff166108c56105ed565b73ffffffffffffffffffffffffffffffffffffffff1614610924576108e86109ea565b6040517f118cdaa700000000000000000000000000000000000000000000000000000000815260040161091b9190610e30565b60405180910390fd5b565b60008060009054906101000a900473ffffffffffffffffffffffffffffffffffffffff169050816000806101000a81548173ffffffffffffffffffffffffffffffffffffffff021916908373ffffffffffffffffffffffffffffffffffffffff1602179055508173ffffffffffffffffffffffffffffffffffffffff168173ffffffffffffffffffffffffffffffffffffffff167f8be0079c531659141344cd1fd0a4f28419497f9722a3daafe3b4186f6b6457e060405160405180910390a35050565b600033905090565b6000604051905090565b600080fd5b600080fd5b6000819050919050565b610a1981610a06565b8114610a2457600080fd5b50565b600081359050610a3681610a10565b92915050565b600060208284031215610a5257610a516109fc565b5b6000610a6084828501610a27565b91505092915050565b610a7281610a06565b82525050565b600081519050919050565b600082825260208201905092915050565b60005b83811015610ab2578082015181840152602081019050610a97565b60008484015250505050565b6000601f19601f8301169050919050565b6000610ada82610a78565b610ae48185610a83565b9350610af4818560208601610a94565b610afd81610abe565b840191505092915050565b60008115159050919050565b610b1d81610b08565b82525050565b600060e082019050610b38600083018a610a69565b8181036020830152610b4a8189610acf565b90508181036040830152610b5e8188610acf565b9050610b6d6060830187610a69565b610b7a6080830186610a69565b610b8760a0830185610a69565b610b9460c0830184610b14565b98975050505050505050565b6000602082019050610bb56000830184610a69565b92915050565b600073ffffffffffffffffffffffffffffffffffffffff82169050919050565b6000610be682610bbb565b9050919050565b610bf681610bdb565b8114610c0157600080fd5b50565b600081359050610c1381610bed565b92915050565b60008060408385031215610c3057610c2f6109fc565b5b6000610c3e85828601610c04565b9250506020610c4f85828601610a27565b9150509250929050565b6000602082019050610c6e6000830184610b14565b92915050565b600080fd5b600080fd5b7f4e487b7100000000000000000000000000000000000000000000000000000000600052604160045260246000fd5b610cb682610abe565b810181811067ffffffffffffffff82111715610cd557610cd4610c7e565b5b80604052505050565b6000610ce86109f2565b9050610cf48282610cad565b919050565b600067ffffffffffffffff821115610d1457610d13610c7e565b5b610d1d82610abe565b9050602081019050919050565b82818337600083830152505050565b6000610d4c610d4784610cf9565b610cde565b905082815260208101848484011115610d6857610d67610c79565b5b610d73848285610d2a565b509392505050565b600082601f830112610d9057610d8f610c74565b5b8135610da0848260208601610d39565b91505092915050565b60008060408385031215610dc057610dbf6109fc565b5b600083013567ffffffffffffffff811115610dde57610ddd610a01565b5b610dea85828601610d7b565b925050602083013567ffffffffffffffff811115610e0b57610e0a610a01565b5b610e1785828601610d7b565b9150509250929050565b610e2a81610bdb565b82525050565b6000602082019050610e456000830184610e21565b92915050565b610e5481610b08565b8114610e5f57600080fd5b50565b600081359050610e7181610e4b565b92915050565b60008060408385031215610e8e57610e8d6109fc565b5b6000610e9c85828601610a27565b9250506020610ead85828601610e62565b9150509250929050565b600060208284031215610ecd57610ecc6109fc565b5b6000610edb84828501610c04565b91505092915050565b7f4e487b7100000000000000000000000000000000000000000000000000000000600052602260045260246000fd5b60006002820490506001821680610f2b57607f821691505b602082108103610f3e57610f3d610ee4565b5b50919050565b7f566f74696e67206e6f7420656e64656400000000000000000000000000000000600082015250565b6000610f7a601083610a83565b9150610f8582610f44565b602082019050919050565b60006020820190508181036000830152610fa981610f6d565b9050919050565b7f416c726561647920657865637574656400000000000000000000000000000000600082015250565b6000610fe6601083610a83565b9150610ff182610fb0565b602082019050919050565b6000602082019050818103600083015261101581610fd9565b9050919050565b7f4e487b7100000000000000000000000000000000000000000000000000000000600052601160045260246000fd5b600061105682610a06565b91507fffffffffffffffffffffffffffffffffffffffffffffffffffffffffffffffff82036110885761108761101c565b5b600182019050919050565b600061109e82610a06565b91506110a983610a06565b92508282019050808211156110c1576110c061101c565b5b92915050565b60008190508160005260206000209050919050565b60006020601f8301049050919050565b600082821b905092915050565b6000600883026111297fffffffffffffffffffffffffffffffffffffffffffffffffffffffffffffffff826110ec565b61113386836110ec565b95508019841693508086168417925050509392505050565b6000819050919050565b600061117061116b61116684610a06565b61114b565b610a06565b9050919050565b6000819050919050565b61118a83611155565b61119e61119682611177565b8484546110f9565b825550505050565b600090565b6111b36111a6565b6111be818484611181565b505050565b5b818110156111e2576111d76000826111ab565b6001810190506111c4565b5050565b601f821115611227576111f8816110c7565b611201846110dc565b81016020851015611210578190505b61122461121c856110dc565b8301826111c3565b50505b505050565b600082821c905092915050565b600061124a6000198460080261122c565b1980831691505092915050565b60006112638383611239565b9150826002028217905092915050565b61127c82610a78565b67ffffffffffffffff81111561129557611294610c7e565b5b61129f8254610f13565b6112aa8282856111e6565b600060209050601f8311600181146112dd57600084156112cb578287015190505b6112d58582611257565b86555061133d565b601f1984166112eb866110c7565b60005b82811015611313578489015182556001820191506020850194506020810190506112ee565b86831015611330578489015161132c601f891682611239565b8355505b6001600288020188555050505b505050505050565b6000606082019050818103600083015261135f8186610acf565b905081810360208301526113738185610acf565b90506113826040830184610a69565b949350505050565b7f566f74696e6720656e6465640000000000000000000000000000000000000000600082015250565b60006113c0600c83610a83565b91506113cb8261138a565b602082019050919050565b600060208201905081810360008301526113ef816113b3565b9050919050565b7f416c726561647920766f74656400000000000000000000000000000000000000600082015250565b600061142c600d83610a83565b9150611437826113f6565b602082019050919050565b6000602082019050818103600083015261145b8161141f565b9050919050565b60006040820190506114776000830185610b14565b6114846020830184610a69565b939250505056fea2646970667358221220cd0ea0c69c3aadbfabc3dfb861626f491f1faf1bedd00ca1e7f85f20500e005464736f6c63430008180033",
  "linkReferences": {},
  "deployedLinkReferences": {}
}