{
  "_format": "hh-sol-artifact-1",
  "contractName": "KofiCoin",
  "sourceName": "contracts/KofiCoin.sol",
  "abi": [
    {
      "inputs": [],
      "name": "AccessControlBadConfirmation",
      "type": "error"
    },
    {
      "inputs": [
        {
          "internalType": "address",
          "name": "account",
          "type": "address"
        },
        {
          "internalType": "bytes32",
          "name": "neededRole",
          "type": "bytes32"
        }
      ],
      "name": "AccessControlUnauthorizedAccount",
      "type": "error"
    },
    {
      "inputs": [
        {
          "internalType": "address",
          "name": "target",
          "type": "address"
        }
      ],
      "name": "AddressEmptyCode",
      "type": "error"
    },
    {
      "inputs": [
        {
          "internalType": "address",
          "name": "implementation",
          "type": "address"
        }
      ],
      "name": "ERC1967InvalidImplementation",
      "type": "error"
    },
    {
      "inputs": [],
      "name": "ERC1967NonPayable",
      "type": "error"
    },
    {
      "inputs": [
        {
          "internalType": "address",
          "name": "spender",
          "type": "address"
        },
        {
          "internalType": "uint256",
          "name": "allowance",
          "type": "uint256"
        },
        {
          "internalType": "uint256",
          "name": "needed",
          "type": "uint256"
        }
      ],
      "name": "ERC20InsufficientAllowance",
      "type": "error"
    },
    {
      "inputs": [
        {
          "internalType": "address",
          "name": "sender",
          "type": "address"
        },
        {
          "internalType": "uint256",
          "name": "balance",
          "type": "uint256"
        },
        {
          "internalType": "uint256",
          "name": "needed",
          "type": "uint256"
        }
      ],
      "name": "ERC20InsufficientBalance",
      "type": "error"
    },
    {
      "inputs": [
        {
          "internalType": "address",
          "name": "approver",
          "type": "address"
        }
      ],
      "name": "ERC20InvalidApprover",
      "type": "error"
    },
    {
      "inputs": [
        {
          "internalType": "address",
          "name": "receiver",
          "type": "address"
        }
      ],
      "name": "ERC20InvalidReceiver",
      "type": "error"
    },
    {
      "inputs": [
        {
          "internalType": "address",
          "name": "sender",
          "type": "address"
        }
      ],
      "name": "ERC20InvalidSender",
      "type": "error"
    },
    {
      "inputs": [
        {
          "internalType": "address",
          "name": "spender",
          "type": "address"
        }
      ],
      "name": "ERC20InvalidSpender",
      "type": "error"
    },
    {
      "inputs": [],
      "name": "FailedCall",
      "type": "error"
    },
    {
      "inputs": [],
      "name": "InvalidInitialization",
      "type": "error"
    },
    {
      "inputs": [],
      "name": "NotInitializing",
      "type": "error"
    },
    {
      "inputs": [],
      "name": "UUPSUnauthorizedCallContext",
      "type": "error"
    },
    {
      "inputs": [
        {
          "internalType": "bytes32",
          "name": "slot",
          "type": "bytes32"
        }
      ],
      "name": "UUPSUnsupportedProxiableUUID",
      "type": "error"
    },
    {
      "anonymous": false,
      "inputs": [
        {
          "indexed": true,
          "internalType": "address",
          "name": "owner",
          "type": "address"
        },
        {
          "indexed": true,
          "internalType": "address",
          "name": "spender",
          "type": "address"
        },
        {
          "indexed": false,
          "internalType": "uint256",
          "name": "value",
          "type": "uint256"
        }
      ],
      "name": "Approval",
      "type": "event"
    },
    {
      "anonymous": false,
      "inputs": [
        {
          "indexed": false,
          "internalType": "uint64",
          "name": "version",
          "type": "uint64"
        }
      ],
      "name": "Initialized",
      "type": "event"
    },
    {
      "anonymous": false,
      "inputs": [
        {
          "indexed": true,
          "internalType": "bytes32",
          "name": "role",
          "type": "bytes32"
        },
        {
          "indexed": true,
          "internalType": "bytes32",
          "name": "previousAdminRole",
          "type": "bytes32"
        },
        {
          "indexed": true,
          "internalType": "bytes32",
          "name": "newAdminRole",
          "type": "bytes32"
        }
      ],
      "name": "RoleAdminChanged",
      "type": "event"
    },
    {
      "anonymous": false,
      "inputs": [
        {
          "indexed": true,
          "internalType": "bytes32",
          "name": "role",
          "type": "bytes32"
        },
        {
          "indexed": true,
          "internalType": "address",
          "name": "account",
          "type": "address"
        },
        {
          "indexed": true,
          "internalType": "address",
          "name": "sender",
          "type": "address"
        }
      ],
      "name": "RoleGranted",
      "type": "event"
    },
    {
      "anonymous": false,
      "inputs": [
        {
          "indexed": true,
          "internalType": "bytes32",
          "name": "role",
          "type": "bytes32"
        },
        {
          "indexed": true,
          "internalType": "address",
          "name": "account",
          "type": "address"
        },
        {
          "indexed": true,
          "internalType": "address",
          "name": "sender",
          "type": "address"
        }
      ],
      "name": "RoleRevoked",
      "type": "event"
    },
    {
      "anonymous": false,
      "inputs": [
        {
          "indexed": true,
          "internalType": "address",
          "name": "from",
          "type": "address"
        },
        {
          "indexed": true,
          "internalType": "address",
          "name": "to",
          "type": "address"
        },
        {
          "indexed": false,
          "internalType": "uint256",
          "name": "value",
          "type": "uint256"
        }
      ],
      "name": "Transfer",
      "type": "event"
    },
    {
      "anonymous": false,
      "inputs": [
        {
          "indexed": true,
          "internalType": "address",
          "name": "implementation",
          "type": "address"
        }
      ],
      "name": "Upgraded",
      "type": "event"
    },
    {
      "inputs": [],
      "name": "DEFAULT_ADMIN_ROLE",
      "outputs": [
        {
          "internalType": "bytes32",
          "name": "",
          "type": "bytes32"
        }
      ],
      "stateMutability": "view",
      "type": "function"
    },
    {
      "inputs": [],
      "name": "MINTER_ROLE",
      "outputs": [
        {
          "internalType": "bytes32",
          "name": "",
          "type": "bytes32"
        }
      ],
      "stateMutability": "view",
      "type": "function"
    },
    {
      "inputs": [],
      "name": "UPGRADER_ROLE",
      "outputs": [
        {
          "internalType": "bytes32",
          "name": "",
          "type": "bytes32"
        }
      ],
      "stateMutability": "view",
      "type": "function"
    },
    {
      "inputs": [],
      "name": "UPGRADE_INTERFACE_VERSION",
      "outputs": [
        {
          "internalType": "string",
          "name": "",
          "type": "string"
        }
      ],
      "stateMutability": "view",
      "type": "function"
    },
    {
      "inputs": [
        {
          "internalType": "address",
          "name": "owner",
          "type": "address"
        },
        {
          "internalType": "address",
          "name": "spender",
          "type": "address"
        }
      ],
      "name": "allowance",
      "outputs": [
        {
          "internalType": "uint256",
          "name": "",
          "type": "uint256"
        }
      ],
      "stateMutability": "view",
      "type": "function"
    },
    {
      "inputs": [
        {
          "internalType": "address",
          "name": "spender",
          "type": "address"
        },
        {
          "internalType": "uint256",
          "name": "value",
          "type": "uint256"
        }
      ],
      "name": "approve",
      "outputs": [
        {
          "internalType": "bool",
          "name": "",
          "type": "bool"
        }
      ],
      "stateMutability": "nonpayable",
      "type": "function"
    },
    {
      "inputs": [
        {
          "internalType": "address",
          "name": "account",
          "type": "address"
        }
      ],
      "name": "balanceOf",
      "outputs": [
        {
          "internalType": "uint256",
          "name": "",
          "type": "uint256"
        }
      ],
      "stateMutability": "view",
      "type": "function"
    },
    {
      "inputs": [],
      "name": "decimals",
      "outputs": [
        {
          "internalType": "uint8",
          "name": "",
          "type": "uint8"
        }
      ],
      "stateMutability": "view",
      "type": "function"
    },
    {
      "inputs": [
        {
          "internalType": "bytes32",
          "name": "role",
          "type": "bytes32"
        }
      ],
      "name": "getRoleAdmin",
      "outputs": [
        {
          "internalType": "bytes32",
          "name": "",
          "type": "bytes32"
        }
      ],
      "stateMutability": "view",
      "type": "function"
    },
    {
      "inputs": [
        {
          "internalType": "bytes32",
          "name": "role",
          "type": "bytes32"
        },
        {
          "internalType": "address",
          "name": "account",
          "type": "address"
        }
      ],
      "name": "grantRole",
      "outputs": [],
      "stateMutability": "nonpayable",
      "type": "function"
    },
    {
      "inputs": [
        {
          "internalType": "bytes32",
          "name": "role",
          "type": "bytes32"
        },
        {
          "internalType": "address",
          "name": "account",
          "type": "address"
        }
      ],
      "name": "hasRole",
      "outputs": [
        {
          "internalType": "bool",
          "name": "",
          "type": "bool"
        }
      ],
      "stateMutability": "view",
      "type": "function"
    },
    {
      "inputs": [
        {
          "internalType": "address",
          "name": "admin",
          "type": "address"
        }
      ],
      "name": "initialize",
      "outputs": [],
      "stateMutability": "nonpayable",
      "type": "function"
    },
    {
      "inputs": [
        {
          "internalType": "address",
          "name": "to",
          "type": "address"
        },
        {
          "internalType": "uint256",
          "name": "amount",
          "type": "uint256"
        }
      ],
      "name": "mint",
      "outputs": [],
      "stateMutability": "nonpayable",
      "type": "function"
    },
    {
      "inputs": [],
      "name": "name",
      "outputs": [
        {
          "internalType": "string",
          "name": "",
          "type": "string"
        }
      ],
      "stateMutability": "view",
      "type": "function"
    },
    {
      "inputs": [],
      "name": "proxiableUUID",
      "outputs": [
        {
          "internalType": "bytes32",
          "name": "",
          "type": "bytes32"
        }
      ],
      "stateMutability": "view",
      "type": "function"
    },
    {
      "inputs": [
        {
          "internalType": "bytes32",
          "name": "role",
          "type": "bytes32"
        },
        {
          "internalType": "address",
          "name": "callerConfirmation",
          "type": "address"
        }
      ],
      "name": "renounceRole",
      "outputs": [],
      "stateMutability": "nonpayable",
      "type": "function"
    },
    {
      "inputs": [
        {
          "internalType": "bytes32",
          "name": "role",
          "type": "bytes32"
        },
        {
          "internalType": "address",
          "name": "account",
          "type": "address"
        }
      ],
      "name": "revokeRole",
      "outputs": [],
      "stateMutability": "nonpayable",
      "type": "function"
    },
    {
      "inputs": [
        {
          "internalType": "bytes4",
          "name": "interfaceId",
          "type": "bytes4"
        }
      ],
      "name": "supportsInterface",
      "outputs": [
        {
          "internalType": "bool",
          "name": "",
          "type": "bool"
        }
      ],
      "stateMutability": "view",
      "type": "function"
    },
    {
      "inputs": [],
      "name": "symbol",
      "outputs": [
        {
          "internalType": "string",
          "name": "",
          "type": "string"
        }
      ],
      "stateMutability": "view",
      "type": "function"
    },
    {
      "inputs": [],
      "name": "totalSupply",
      "outputs": [
        {
          "internalType": "uint256",
          "name": "",
          "type": "uint256"
        }
      ],
      "stateMutability": "view",
      "type": "function"
    },
    {
      "inputs": [
        {
          "internalType": "address",
          "name": "to",
          "type": "address"
        },
        {
          "internalType": "uint256",
          "name": "value",
          "type": "uint256"
        }
      ],
      "name": "transfer",
      "outputs": [
        {
          "internalType": "bool",
          "name": "",
          "type": "bool"
        }
      ],
      "stateMutability": "nonpayable",
      "type": "function"
    },
    {
      "inputs": [
        {
          "internalType": "address",
          "name": "from",
          "type": "address"
        },
        {
          "internalType": "address",
          "name": "to",
          "type": "address"
        },
        {
          "internalType": "uint256",
          "name": "value",
          "type": "uint256"
        }
      ],
      "name": "transferFrom",
      "outputs": [
        {
          "internalType": "bool",
          "name": "",
          "type": "bool"
        }
      ],
      "stateMutability": "nonpayable",
      "type": "function"
    },
    {
      "inputs": [
        {
          "internalType": "address",
          "name": "newImplementation",
          "type": "address"
        },
        {
          "internalType": "bytes",
          "name": "data",
          "type": "bytes"
        }
      ],
      "name": "upgradeToAndCall",
      "outputs": [],
      "stateMutability": "payable",
      "type": "function"
    }
  ],
  "bytecode": "0x60a06040523073ffffffffffffffffffffffffffffffffffffffff1660809073ffffffffffffffffffffffffffffffffffffffff1681525034801561004357600080fd5b506080516128ff61006d600039600081816112b60152818161130b01526114e901526128ff6000f3fe6080604052600436106101405760003560e01c806352d1902d116100b6578063ad3cb1cc1161006f578063ad3cb1cc14610489578063c4d66de8146104b4578063d5391393146104dd578063d547741f14610508578063dd62ed3e14610531578063f72c0d8b1461056e57610140565b806352d1902d1461035157806370a082311461037c57806391d14854146103b957806395d89b41146103f6578063a217fddf14610421578063a9059cbb1461044c57610140565b8063248a9ca311610108578063248a9ca3146102525780632f2ff15d1461028f578063313ce567146102b857806336568abe146102e357806340c10f191461030c5780634f1ef2861461033557610140565b806301ffc9a71461014557806306fdde0314610182578063095ea7b3146101ad57806318160ddd146101ea57806323b872dd14610215575b600080fd5b34801561015157600080fd5b5061016c60048036038101906101679190611e8c565b610599565b6040516101799190611ed4565b60405180910390f35b34801561018e57600080fd5b50610197610613565b6040516101a49190611f7f565b60405180910390f35b3480156101b957600080fd5b506101d460048036038101906101cf9190612035565b6106b4565b6040516101e19190611ed4565b60405180910390f35b3480156101f657600080fd5b506101ff6106d7565b60405161020c9190612084565b60405180910390f35b34801561022157600080fd5b5061023c6004803603810190610237919061209f565b6106ef565b6040516102499190611ed4565b60405180910390f35b34801561025e57600080fd5b5061027960048036038101906102749190612128565b61071e565b6040516102869190612164565b60405180910390f35b34801561029b57600080fd5b506102b660048036038101906102b1919061217f565b61074c565b005b3480156102c457600080fd5b506102cd61076e565b6040516102da91906121db565b60405180910390f35b3480156102ef57600080fd5b5061030a6004803603810190610305919061217f565b610777565b005b34801561031857600080fd5b50610333600480360381019061032e9190612035565b6107f2565b005b61034f600480360381019061034a919061232b565b61082b565b005b34801561035d57600080fd5b5061036661084a565b6040516103739190612164565b60405180910390f35b34801561038857600080fd5b506103a3600480360381019061039e9190612387565b61087d565b6040516103b09190612084565b60405180910390f35b3480156103c557600080fd5b506103e060048036038101906103db919061217f565b6108d4565b6040516103ed9190611ed4565b60405180910390f35b34801561040257600080fd5b5061040b61094d565b6040516104189190611f7f565b60405180910390f35b34801561042d57600080fd5b506104366109ee565b6040516104439190612164565b60405180910390f35b34801561045857600080fd5b50610473600480360381019061046e9190612035565b6109f5565b6040516104809190611ed4565b60405180910390f35b34801561049557600080fd5b5061049e610a18565b6040516104ab9190611f7f565b60405180910390f35b3480156104c057600080fd5b506104db60048036038101906104d69190612387565b610a51565b005b3480156104e957600080fd5b506104f2610cbf565b6040516104ff9190612164565b60405180910390f35b34801561051457600080fd5b5061052f600480360381019061052a919061217f565b610ce3565b005b34801561053d57600080fd5b50610558600480360381019061055391906123b4565b610d05565b6040516105659190612084565b60405180910390f35b34801561057a57600080fd5b50610583610d9a565b6040516105909190612164565b60405180910390f35b60007f7965db0b000000000000000000000000000000000000000000000000000000007bffffffffffffffffffffffffffffffffffffffffffffffffffffffff1916827bffffffffffffffffffffffffffffffffffffffffffffffffffffffff1916148061060c575061060b82610dbe565b5b9050919050565b6060600061061f610e28565b905080600301805461063090612423565b80601f016020809104026020016040519081016040528092919081815260200182805461065c90612423565b80156106a95780601f1061067e576101008083540402835291602001916106a9565b820191906000526020600020905b81548152906001019060200180831161068c57829003601f168201915b505050505091505090565b6000806106bf610e50565b90506106cc818585610e58565b600191505092915050565b6000806106e2610e28565b9050806002015491505090565b6000806106fa610e50565b9050610707858285610e6a565b610712858585610eff565b60019150509392505050565b600080610729610ff3565b905080600001600084815260200190815260200160002060010154915050919050565b6107558261071e565b61075e8161101b565b610768838361102f565b50505050565b60006012905090565b61077f610e50565b73ffffffffffffffffffffffffffffffffffffffff168173ffffffffffffffffffffffffffffffffffffffff16146107e3576040517f6697b23200000000000000000000000000000000000000000000000000000000815260040160405180910390fd5b6107ed8282611130565b505050565b7f9f2df0fed2c77648de5860a4cc508cd0818c85b8b8a1ab4ceeef8d981c8956a661081c8161101b565b6108268383611232565b505050565b6108336112b4565b61083c8261139a565b61084682826113c8565b5050565b60006108546114e7565b7f360894a13ba1a3210667c828492db98dca3e2076cc3735a920a3ca505d382bbc60001b905090565b600080610888610e28565b90508060000160008473ffffffffffffffffffffffffffffffffffffffff1673ffffffffffffffffffffffffffffffffffffffff16815260200190815260200160002054915050919050565b6000806108df610ff3565b905080600001600085815260200190815260200160002060000160008473ffffffffffffffffffffffffffffffffffffffff1673ffffffffffffffffffffffffffffffffffffffff16815260200190815260200160002060009054906101000a900460ff1691505092915050565b60606000610959610e28565b905080600401805461096a90612423565b80601f016020809104026020016040519081016040528092919081815260200182805461099690612423565b80156109e35780601f106109b8576101008083540402835291602001916109e3565b820191906000526020600020905b8154815290600101906020018083116109c657829003601f168201915b505050505091505090565b6000801b81565b600080610a00610e50565b9050610a0d818585610eff565b600191505092915050565b6040518060400160405280600581526020017f352e302e3000000000000000000000000000000000000000000000000000000081525081565b6000610a5b61156e565b905060008160000160089054906101000a900460ff1615905060008260000160009054906101000a900467ffffffffffffffff1690506000808267ffffffffffffffff16148015610aa95750825b9050600060018367ffffffffffffffff16148015610ade575060003073ffffffffffffffffffffffffffffffffffffffff163b145b905081158015610aec575080155b15610b23576040517ff92ee8a900000000000000000000000000000000000000000000000000000000815260040160405180910390fd5b60018560000160006101000a81548167ffffffffffffffff021916908367ffffffffffffffff1602179055508315610b735760018560000160086101000a81548160ff0219169083151502179055505b610be76040518060400160405280600981526020017f4b6f666920436f696e00000000000000000000000000000000000000000000008152506040518060400160405280600481526020017f4b4f464900000000000000000000000000000000000000000000000000000000815250611582565b610bef611598565b610bf76115a2565b610c046000801b8761102f565b50610c2f7f9f2df0fed2c77648de5860a4cc508cd0818c85b8b8a1ab4ceeef8d981c8956a68761102f565b50610c5a7f189ab7a9244df0848122154315af71fe140f3db0fe014031783b0946b8c9d2e38761102f565b508315610cb75760008560000160086101000a81548160ff0219169083151502179055507fc7f505b2f371ae2175ee4913f4499e1f2633a7b5936321eed1cdaeb6115181d26001604051610cae91906124ad565b60405180910390a15b505050505050565b7f9f2df0fed2c77648de5860a4cc508cd0818c85b8b8a1ab4ceeef8d981c8956a681565b610cec8261071e565b610cf58161101b565b610cff8383611130565b50505050565b600080610d10610e28565b90508060010160008573ffffffffffffffffffffffffffffffffffffffff1673ffffffffffffffffffffffffffffffffffffffff16815260200190815260200160002060008473ffffffffffffffffffffffffffffffffffffffff1673ffffffffffffffffffffffffffffffffffffffff1681526020019081526020016000205491505092915050565b7f189ab7a9244df0848122154315af71fe140f3db0fe014031783b0946b8c9d2e381565b60007f01ffc9a7000000000000000000000000000000000000000000000000000000007bffffffffffffffffffffffffffffffffffffffffffffffffffffffff1916827bffffffffffffffffffffffffffffffffffffffffffffffffffffffff1916149050919050565b60007f52c63247e1f47db19d5ce0460030c497f067ca4cebf71ba98eeadabe20bace00905090565b600033905090565b610e6583838360016115ac565b505050565b6000610e768484610d05565b90507fffffffffffffffffffffffffffffffffffffffffffffffffffffffffffffffff811015610ef95781811015610ee9578281836040517ffb8f41b2000000000000000000000000000000000000000000000000000000008152600401610ee0939291906124d7565b60405180910390fd5b610ef8848484840360006115ac565b5b50505050565b600073ffffffffffffffffffffffffffffffffffffffff168373ffffffffffffffffffffffffffffffffffffffff1603610f715760006040517f96c6fd1e000000000000000000000000000000000000000000000000000000008152600401610f68919061250e565b60405180910390fd5b600073ffffffffffffffffffffffffffffffffffffffff168273ffffffffffffffffffffffffffffffffffffffff1603610fe35760006040517fec442f05000000000000000000000000000000000000000000000000000000008152600401610fda919061250e565b60405180910390fd5b610fee838383611792565b505050565b60007f02dd7bc7dec4dceedda775e58dd541e08a116c6c53815c0bd028192f7b626800905090565b61102c81611027610e50565b6119d1565b50565b60008061103a610ff3565b905061104684846108d4565b61112457600181600001600086815260200190815260200160002060000160008573ffffffffffffffffffffffffffffffffffffffff1673ffffffffffffffffffffffffffffffffffffffff16815260200190815260200160002060006101000a81548160ff0219169083151502179055506110c0610e50565b73ffffffffffffffffffffffffffffffffffffffff168373ffffffffffffffffffffffffffffffffffffffff16857f2f8788117e7eff1d82e926ec794901d17c78024a50270940304540a733656f0d60405160405180910390a4600191505061112a565b60009150505b92915050565b60008061113b610ff3565b905061114784846108d4565b1561122657600081600001600086815260200190815260200160002060000160008573ffffffffffffffffffffffffffffffffffffffff1673ffffffffffffffffffffffffffffffffffffffff16815260200190815260200160002060006101000a81548160ff0219169083151502179055506111c2610e50565b73ffffffffffffffffffffffffffffffffffffffff168373ffffffffffffffffffffffffffffffffffffffff16857ff6391f5c32d9c69d2a47ea670b442974b53935d1edc7fd64eb21e047a839171b60405160405180910390a4600191505061122c565b60009150505b92915050565b600073ffffffffffffffffffffffffffffffffffffffff168273ffffffffffffffffffffffffffffffffffffffff16036112a45760006040517fec442f0500000000000000000000000000000000000000000000000000000000815260040161129b919061250e565b60405180910390fd5b6112b060008383611792565b5050565b7f000000000000000000000000000000000000000000000000000000000000000073ffffffffffffffffffffffffffffffffffffffff163073ffffffffffffffffffffffffffffffffffffffff16148061136157507f000000000000000000000000000000000000000000000000000000000000000073ffffffffffffffffffffffffffffffffffffffff16611348611a22565b73ffffffffffffffffffffffffffffffffffffffff1614155b15611398576040517fe07c8dba00000000000000000000000000000000000000000000000000000000815260040160405180910390fd5b565b7f189ab7a9244df0848122154315af71fe140f3db0fe014031783b0946b8c9d2e36113c48161101b565b5050565b8173ffffffffffffffffffffffffffffffffffffffff166352d1902d6040518163ffffffff1660e01b8152600401602060405180830381865afa92505050801561143057506040513d601f19601f8201168201806040525081019061142d919061253e565b60015b61147157816040517f4c9c8ce3000000000000000000000000000000000000000000000000000000008152600401611468919061250e565b60405180910390fd5b7f360894a13ba1a3210667c828492db98dca3e2076cc3735a920a3ca505d382bbc60001b81146114d857806040517faa1d49a40000000000000000000000000000000000000000000000000000000081526004016114cf9190612164565b60405180910390fd5b6114e28383611a79565b505050565b7f000000000000000000000000000000000000000000000000000000000000000073ffffffffffffffffffffffffffffffffffffffff163073ffffffffffffffffffffffffffffffffffffffff161461156c576040517fe07c8dba00000000000000000000000000000000000000000000000000000000815260040160405180910390fd5b565b600080611579611aec565b90508091505090565b61158a611b17565b6115948282611b57565b5050565b6115a0611b17565b565b6115aa611b17565b565b60006115b6610e28565b9050600073ffffffffffffffffffffffffffffffffffffffff168573ffffffffffffffffffffffffffffffffffffffff160361162a5760006040517fe602df05000000000000000000000000000000000000000000000000000000008152600401611621919061250e565b60405180910390fd5b600073ffffffffffffffffffffffffffffffffffffffff168473ffffffffffffffffffffffffffffffffffffffff160361169c5760006040517f94280d62000000000000000000000000000000000000000000000000000000008152600401611693919061250e565b60405180910390fd5b828160010160008773ffffffffffffffffffffffffffffffffffffffff1673ffffffffffffffffffffffffffffffffffffffff16815260200190815260200160002060008673ffffffffffffffffffffffffffffffffffffffff1673ffffffffffffffffffffffffffffffffffffffff16815260200190815260200160002081905550811561178b578373ffffffffffffffffffffffffffffffffffffffff168573ffffffffffffffffffffffffffffffffffffffff167f8c5be1e5ebec7d5bd14f71427d1e84f3dd0314c0f7b2291e5b200ac8c7c3b925856040516117829190612084565b60405180910390a35b5050505050565b600061179c610e28565b9050600073ffffffffffffffffffffffffffffffffffffffff168473ffffffffffffffffffffffffffffffffffffffff16036117f257818160020160008282546117e6919061259a565b925050819055506118cb565b60008160000160008673ffffffffffffffffffffffffffffffffffffffff1673ffffffffffffffffffffffffffffffffffffffff16815260200190815260200160002054905082811015611881578481846040517fe450d38c000000000000000000000000000000000000000000000000000000008152600401611878939291906124d7565b60405180910390fd5b8281038260000160008773ffffffffffffffffffffffffffffffffffffffff1673ffffffffffffffffffffffffffffffffffffffff16815260200190815260200160002081905550505b600073ffffffffffffffffffffffffffffffffffffffff168373ffffffffffffffffffffffffffffffffffffffff160361191657818160020160008282540392505081905550611966565b818160000160008573ffffffffffffffffffffffffffffffffffffffff1673ffffffffffffffffffffffffffffffffffffffff168152602001908152602001600020600082825401925050819055505b8273ffffffffffffffffffffffffffffffffffffffff168473ffffffffffffffffffffffffffffffffffffffff167fddf252ad1be2c89b69c2b068fc378daa952ba7f163c4a11628f55a4df523b3ef846040516119c39190612084565b60405180910390a350505050565b6119db82826108d4565b611a1e5780826040517fe2517d3f000000000000000000000000000000000000000000000000000000008152600401611a159291906125ce565b60405180910390fd5b5050565b6000611a507f360894a13ba1a3210667c828492db98dca3e2076cc3735a920a3ca505d382bbc60001b611b94565b60000160009054906101000a900473ffffffffffffffffffffffffffffffffffffffff16905090565b611a8282611b9e565b8173ffffffffffffffffffffffffffffffffffffffff167fbc7cd75a20ee27fd9adebab32041f755214dbc6bffa90cc0225b39da2e5c2d3b60405160405180910390a2600081511115611adf57611ad98282611c6b565b50611ae8565b611ae7611cef565b5b5050565b60007ff0c57e16840df040f15088dc2f81fe391c3923bec73e23a9662efc9c229c6a0060001b905090565b611b1f611d2c565b611b55576040517fd7e6bcf800000000000000000000000000000000000000000000000000000000815260040160405180910390fd5b565b611b5f611b17565b6000611b69610e28565b905082816003019081611b7c9190612799565b5081816004019081611b8e9190612799565b50505050565b6000819050919050565b60008173ffffffffffffffffffffffffffffffffffffffff163b03611bfa57806040517f4c9c8ce3000000000000000000000000000000000000000000000000000000008152600401611bf1919061250e565b60405180910390fd5b80611c277f360894a13ba1a3210667c828492db98dca3e2076cc3735a920a3ca505d382bbc60001b611b94565b60000160006101000a81548173ffffffffffffffffffffffffffffffffffffffff021916908373ffffffffffffffffffffffffffffffffffffffff16021790555050565b60606000808473ffffffffffffffffffffffffffffffffffffffff1684604051611c9591906128b2565b600060405180830381855af49150503d8060008114611cd0576040519150601f19603f3d011682016040523d82523d6000602084013e611cd5565b606091505b5091509150611ce5858383611d4c565b9250505092915050565b6000341115611d2a576040517fb398979f00000000000000000000000000000000000000000000000000000000815260040160405180910390fd5b565b6000611d3661156e565b60000160089054906101000a900460ff16905090565b606082611d6157611d5c82611ddb565b611dd3565b60008251148015611d89575060008473ffffffffffffffffffffffffffffffffffffffff163b145b15611dcb57836040517f9996b315000000000000000000000000000000000000000000000000000000008152600401611dc2919061250e565b60405180910390fd5b819050611dd4565b5b9392505050565b600081511115611dee5780518082602001fd5b6040517fd6bda27500000000000000000000000000000000000000000000000000000000815260040160405180910390fd5b6000604051905090565b600080fd5b600080fd5b60007fffffffff0000000000000000000000000000000000000000000000000000000082169050919050565b611e6981611e34565b8114611e7457600080fd5b50565b600081359050611e8681611e60565b92915050565b600060208284031215611ea257611ea1611e2a565b5b6000611eb084828501611e77565b91505092915050565b60008115159050919050565b611ece81611eb9565b82525050565b6000602082019050611ee96000830184611ec5565b92915050565b600081519050919050565b600082825260208201905092915050565b60005b83811015611f29578082015181840152602081019050611f0e565b60008484015250505050565b6000601f19601f8301169050919050565b6000611f5182611eef565b611f5b8185611efa565b9350611f6b818560208601611f0b565b611f7481611f35565b840191505092915050565b60006020820190508181036000830152611f998184611f46565b905092915050565b600073ffffffffffffffffffffffffffffffffffffffff82169050919050565b6000611fcc82611fa1565b9050919050565b611fdc81611fc1565b8114611fe757600080fd5b50565b600081359050611ff981611fd3565b92915050565b6000819050919050565b61201281611fff565b811461201d57600080fd5b50565b60008135905061202f81612009565b92915050565b6000806040838503121561204c5761204b611e2a565b5b600061205a85828601611fea565b925050602061206b85828601612020565b9150509250929050565b61207e81611fff565b82525050565b60006020820190506120996000830184612075565b92915050565b6000806000606084860312156120b8576120b7611e2a565b5b60006120c686828701611fea565b93505060206120d786828701611fea565b92505060406120e886828701612020565b9150509250925092565b6000819050919050565b612105816120f2565b811461211057600080fd5b50565b600081359050612122816120fc565b92915050565b60006020828403121561213e5761213d611e2a565b5b600061214c84828501612113565b91505092915050565b61215e816120f2565b82525050565b60006020820190506121796000830184612155565b92915050565b6000806040838503121561219657612195611e2a565b5b60006121a485828601612113565b92505060206121b585828601611fea565b9150509250929050565b600060ff82169050919050565b6121d5816121bf565b82525050565b60006020820190506121f060008301846121cc565b92915050565b600080fd5b600080fd5b7f4e487b7100000000000000000000000000000000000000000000000000000000600052604160045260246000fd5b61223882611f35565b810181811067ffffffffffffffff8211171561225757612256612200565b5b80604052505050565b600061226a611e20565b9050612276828261222f565b919050565b600067ffffffffffffffff82111561229657612295612200565b5b61229f82611f35565b9050602081019050919050565b82818337600083830152505050565b60006122ce6122c98461227b565b612260565b9050828152602081018484840111156122ea576122e96121fb565b5b6122f58482856122ac565b509392505050565b600082601f830112612312576123116121f6565b5b81356123228482602086016122bb565b91505092915050565b6000806040838503121561234257612341611e2a565b5b600061235085828601611fea565b925050602083013567ffffffffffffffff81111561237157612370611e2f565b5b61237d858286016122fd565b9150509250929050565b60006020828403121561239d5761239c611e2a565b5b60006123ab84828501611fea565b91505092915050565b600080604083850312156123cb576123ca611e2a565b5b60006123d985828601611fea565b92505060206123ea85828601611fea565b9150509250929050565b7f4e487b7100000000000000000000000000000000000000000000000000000000600052602260045260246000fd5b6000600282049050600182168061243b57607f821691505b60208210810361244e5761244d6123f4565b5b50919050565b6000819050919050565b600067ffffffffffffffff82169050919050565b6000819050919050565b600061249761249261248d84612454565b612472565b61245e565b9050919050565b6124a78161247c565b82525050565b60006020820190506124c2600083018461249e565b92915050565b6124d181611fc1565b82525050565b60006060820190506124ec60008301866124c8565b6124f96020830185612075565b6125066040830184612075565b949350505050565b600060208201905061252360008301846124c8565b92915050565b600081519050612538816120fc565b92915050565b60006020828403121561255457612553611e2a565b5b600061256284828501612529565b91505092915050565b7f4e487b7100000000000000000000000000000000000000000000000000000000600052601160045260246000fd5b60006125a582611fff565b91506125b083611fff565b92508282019050808211156125c8576125c761256b565b5b92915050565b60006040820190506125e360008301856124c8565b6125f06020830184612155565b9392505050565b60008190508160005260206000209050919050565b60006020601f8301049050919050565b600082821b905092915050565b6000600883026126597fffffffffffffffffffffffffffffffffffffffffffffffffffffffffffffffff8261261c565b612663868361261c565b95508019841693508086168417925050509392505050565b600061269661269161268c84611fff565b612472565b611fff565b9050919050565b6000819050919050565b6126b08361267b565b6126c46126bc8261269d565b848454612629565b825550505050565b600090565b6126d96126cc565b6126e48184846126a7565b505050565b5b81811015612708576126fd6000826126d1565b6001810190506126ea565b5050565b601f82111561274d5761271e816125f7565b6127278461260c565b81016020851015612736578190505b61274a6127428561260c565b8301826126e9565b50505b505050565b600082821c905092915050565b600061277060001984600802612752565b1980831691505092915050565b6000612789838361275f565b9150826002028217905092915050565b6127a282611eef565b67ffffffffffffffff8111156127bb576127ba612200565b5b6127c58254612423565b6127d082828561270c565b600060209050601f83116001811461280357600084156127f1578287015190505b6127fb858261277d565b865550612863565b601f198416612811866125f7565b60005b8281101561283957848901518255600182019150602085019450602081019050612814565b868310156128565784890151612852601f89168261275f565b8355505b6001600288020188555050505b505050505050565b600081519050919050565b600081905092915050565b600061288c8261286b565b6128968185612876565b93506128a6818560208601611f0b565b80840191505092915050565b60006128be8284612881565b91508190509291505056fea264697066735822122043a2f3221be8cfb5937e09aa9991e1b843ffe6096b178003caae655b17b5224364736f6c63430008180033",
  "linkReferences": {},
  "deployedLinkReferences": {}
}