{
  "_format": "hh-sol-artifact-1",
  "contractName": "LearningModuleNFT",
  "sourceName": "contracts/LearningModuleNFT.sol",
  "abi": [
    {
      "inputs": [],
      "stateMutability": "nonpayable",
      "type": "constructor"
    },
    {
      "inputs": [
        {
          "internalType": "address",
          "name": "sender",
          "type": "address"
        },
        {
          "internalType": "uint256",
          "name": "tokenId",
          "type": "uint256"
        },
        {
          "internalType": "address",
          "name": "owner",
          "type": "address"
        }
      ],
      "name": "ERC721IncorrectOwner",
      "type": "error"
    },
    {
      "inputs": [
        {
          "internalType": "address",
          "name": "operator",
          "type": "address"
        },
        {
          "internalType": "uint256",
          "name": "tokenId",
          "type": "uint256"
        }
      ],
      "name": "ERC721InsufficientApproval",
      "type": "error"
    },
    {
      "inputs": [
        {
          "internalType": "address",
          "name": "approver",
          "type": "address"
        }
      ],
      "name": "ERC721InvalidApprover",
      "type": "error"
    },
    {
      "inputs": [
        {
          "internalType": "address",
          "name": "operator",
          "type": "address"
        }
      ],
      "name": "ERC721InvalidOperator",
      "type": "error"
    },
    {
      "inputs": [
        {
          "internalType": "address",
          "name": "owner",
          "type": "address"
        }
      ],
      "name": "ERC721InvalidOwner",
      "type": "error"
    },
    {
      "inputs": [
        {
          "internalType": "address",
          "name": "receiver",
          "type": "address"
        }
      ],
      "name": "ERC721InvalidReceiver",
      "type": "error"
    },
    {
      "inputs": [
        {
          "internalType": "address",
          "name": "sender",
          "type": "address"
        }
      ],
      "name": "ERC721InvalidSender",
      "type": "error"
    },
    {
      "inputs": [
        {
          "internalType": "uint256",
          "name": "tokenId",
          "type": "uint256"
        }
      ],
      "name": "ERC721NonexistentToken",
      "type": "error"
    },
    {
      "inputs": [
        {
          "internalType": "address",
          "name": "owner",
          "type": "address"
        }
      ],
      "name": "OwnableInvalidOwner",
      "type": "error"
    },
    {
      "inputs": [
        {
          "internalType": "address",
          "name": "account",
          "type": "address"
        }
      ],
      "name": "OwnableUnauthorizedAccount",
      "type": "error"
    },
    {
      "anonymous": false,
      "inputs": [
        {
          "indexed": true,
          "internalType": "address",
          "name": "owner",
          "type": "address"
        },
        {
          "indexed": true,
          "internalType": "address",
          "name": "approved",
          "type": "address"
        },
        {
          "indexed": true,
          "internalType": "uint256",
          "name": "tokenId",
          "type": "uint256"
        }
      ],
      "name": "Approval",
      "type": "event"
    },
    {
      "anonymous": false,
      "inputs": [
        {
          "indexed": true,
          "internalType": "address",
          "name": "owner",
          "type": "address"
        },
        {
          "indexed": true,
          "internalType": "address",
          "name": "operator",
          "type": "address"
        },
        {
          "indexed": false,
          "internalType": "bool",
          "name": "approved",
          "type": "bool"
        }
      ],
      "name": "ApprovalForAll",
      "type": "event"
    },
    {
      "anonymous": false,
      "inputs": [
        {
          "indexed": false,
          "internalType": "uint256",
          "name": "_fromTokenId",
          "type": "uint256"
        },
        {
          "indexed": false,
          "internalType": "uint256",
          "name": "_toTokenId",
          "type": "uint256"
        }
      ],
      "name": "BatchMetadataUpdate",
      "type": "event"
    },
    {
      "anonymous": false,
      "inputs": [
        {
          "indexed": false,
          "internalType": "uint256",
          "name": "_tokenId",
          "type": "uint256"
        }
      ],
      "name": "MetadataUpdate",
      "type": "event"
    },
    {
      "anonymous": false,
      "inputs": [
        {
          "indexed": true,
          "internalType": "address",
          "name": "previousOwner",
          "type": "address"
        },
        {
          "indexed": true,
          "internalType": "address",
          "name": "newOwner",
          "type": "address"
        }
      ],
      "name": "OwnershipTransferred",
      "type": "event"
    },
    {
      "anonymous": false,
      "inputs": [
        {
          "indexed": true,
          "internalType": "address",
          "name": "from",
          "type": "address"
        },
        {
          "indexed": true,
          "internalType": "address",
          "name": "to",
          "type": "address"
        },
        {
          "indexed": true,
          "internalType": "uint256",
          "name": "tokenId",
          "type": "uint256"
        }
      ],
      "name": "Transfer",
      "type": "event"
    },
    {
      "inputs": [
        {
          "internalType": "address",
          "name": "to",
          "type": "address"
        },
        {
          "internalType": "uint256",
          "name": "tokenId",
          "type": "uint256"
        }
      ],
      "name": "approve",
      "outputs": [],
      "stateMutability": "nonpayable",
      "type": "function"
    },
    {
      "inputs": [
        {
          "internalType": "address",
          "name": "owner",
          "type": "address"
        }
      ],
      "name": "balanceOf",
      "outputs": [
        {
          "internalType": "uint256",
          "name": "",
          "type": "uint256"
        }
      ],
      "stateMutability": "view",
      "type": "function"
    },
    {
      "inputs": [
        {
          "internalType": "uint256",
          "name": "tokenId",
          "type": "uint256"
        }
      ],
      "name": "getApproved",
      "outputs": [
        {
          "internalType": "address",
          "name": "",
          "type": "address"
        }
      ],
      "stateMutability": "view",
      "type": "function"
    },
    {
      "inputs": [
        {
          "internalType": "address",
          "name": "",
          "type": "address"
        }
      ],
      "name": "hasMinted",
      "outputs": [
        {
          "internalType": "bool",
          "name": "",
          "type": "bool"
        }
      ],
      "stateMutability": "view",
      "type": "function"
    },
    {
      "inputs": [
        {
          "internalType": "address",
          "name": "owner",
          "type": "address"
        },
        {
          "internalType": "address",
          "name": "operator",
          "type": "address"
        }
      ],
      "name": "isApprovedForAll",
      "outputs": [
        {
          "internalType": "bool",
          "name": "",
          "type": "bool"
        }
      ],
      "stateMutability": "view",
      "type": "function"
    },
    {
      "inputs": [
        {
          "internalType": "address",
          "name": "to",
          "type": "address"
        },
        {
          "internalType": "string",
          "name": "uri",
          "type": "string"
        }
      ],
      "name": "mint",
      "outputs": [],
      "stateMutability": "nonpayable",
      "type": "function"
    },
    {
      "inputs": [],
      "name": "name",
      "outputs": [
        {
          "internalType": "string",
          "name": "",
          "type": "string"
        }
      ],
      "stateMutability": "view",
      "type": "function"
    },
    {
      "inputs": [],
      "name": "nextTokenId",
      "outputs": [
        {
          "internalType": "uint256",
          "name": "",
          "type": "uint256"
        }
      ],
      "stateMutability": "view",
      "type": "function"
    },
    {
      "inputs": [],
      "name": "owner",
      "outputs": [
        {
          "internalType": "address",
          "name": "",
          "type": "address"
        }
      ],
      "stateMutability": "view",
      "type": "function"
    },
    {
      "inputs": [
        {
          "internalType": "uint256",
          "name": "tokenId",
          "type": "uint256"
        }
      ],
      "name": "ownerOf",
      "outputs": [
        {
          "internalType": "address",
          "name": "",
          "type": "address"
        }
      ],
      "stateMutability": "view",
      "type": "function"
    },
    {
      "inputs": [],
      "name": "renounceOwnership",
      "outputs": [],
      "stateMutability": "nonpayable",
      "type": "function"
    },
    {
      "inputs": [
        {
          "internalType": "address",
          "name": "from",
          "type": "address"
        },
        {
          "internalType": "address",
          "name": "to",
          "type": "address"
        },
        {
          "internalType": "uint256",
          "name": "tokenId",
          "type": "uint256"
        }
      ],
      "name": "safeTransferFrom",
      "outputs": [],
      "stateMutability": "nonpayable",
      "type": "function"
    },
    {
      "inputs": [
        {
          "internalType": "address",
          "name": "from",
          "type": "address"
        },
        {
          "internalType": "address",
          "name": "to",
          "type": "address"
        },
        {
          "internalType": "uint256",
          "name": "tokenId",
          "type": "uint256"
        },
        {
          "internalType": "bytes",
          "name": "data",
          "type": "bytes"
        }
      ],
      "name": "safeTransferFrom",
      "outputs": [],
      "stateMutability": "nonpayable",
      "type": "function"
    },
    {
      "inputs": [
        {
          "internalType": "address",
          "name": "operator",
          "type": "address"
        },
        {
          "internalType": "bool",
          "name": "approved",
          "type": "bool"
        }
      ],
      "name": "setApprovalForAll",
      "outputs": [],
      "stateMutability": "nonpayable",
      "type": "function"
    },
    {
      "inputs": [
        {
          "internalType": "bytes4",
          "name": "interfaceId",
          "type": "bytes4"
        }
      ],
      "name": "supportsInterface",
      "outputs": [
        {
          "internalType": "bool",
          "name": "",
          "type": "bool"
        }
      ],
      "stateMutability": "view",
      "type": "function"
    },
    {
      "inputs": [],
      "name": "symbol",
      "outputs": [
        {
          "internalType": "string",
          "name": "",
          "type": "string"
        }
      ],
      "stateMutability": "view",
      "type": "function"
    },
    {
      "inputs": [
        {
          "internalType": "uint256",
          "name": "tokenId",
          "type": "uint256"
        }
      ],
      "name": "tokenURI",
      "outputs": [
        {
          "internalType": "string",
          "name": "",
          "type": "string"
        }
      ],
      "stateMutability": "view",
      "type": "function"
    },
    {
      "inputs": [
        {
          "internalType": "address",
          "name": "from",
          "type": "address"
        },
        {
          "internalType": "address",
          "name": "to",
          "type": "address"
        },
        {
          "internalType": "uint256",
          "name": "tokenId",
          "type": "uint256"
        }
      ],
      "name": "transferFrom",
      "outputs": [],
      "stateMutability": "nonpayable",
      "type": "function"
    },
    {
      "inputs": [
        {
          "internalType": "address",
          "name": "newOwner",
          "type": "address"
        }
      ],
      "name": "transferOwnership",
      "outputs": [],
      "stateMutability": "nonpayable",
      "type": "function"
    }
  ],
  "bytecode": "0x60806040523480156200001157600080fd5b50336040518060400160405280601381526020017f4c6561726e696e67204d6f64756c65204e4654000000000000000000000000008152506040518060400160405280600581526020017f4c4d4e4654000000000000000000000000000000000000000000000000000000815250816000908162000090919062000472565b508060019081620000a2919062000472565b505050600073ffffffffffffffffffffffffffffffffffffffff168173ffffffffffffffffffffffffffffffffffffffff16036200011a5760006040517f1e4fbdf70000000000000000000000000000000000000000000000000000000081526004016200011191906200059e565b60405180910390fd5b6200012b816200013260201b60201c565b50620005bb565b6000600760009054906101000a900473ffffffffffffffffffffffffffffffffffffffff16905081600760006101000a81548173ffffffffffffffffffffffffffffffffffffffff021916908373ffffffffffffffffffffffffffffffffffffffff1602179055508173ffffffffffffffffffffffffffffffffffffffff168173ffffffffffffffffffffffffffffffffffffffff167f8be0079c531659141344cd1fd0a4f28419497f9722a3daafe3b4186f6b6457e060405160405180910390a35050565b600081519050919050565b7f4e487b7100000000000000000000000000000000000000000000000000000000600052604160045260246000fd5b7f4e487b7100000000000000000000000000000000000000000000000000000000600052602260045260246000fd5b600060028204905060018216806200027a57607f821691505b60208210810362000290576200028f62000232565b5b50919050565b60008190508160005260206000209050919050565b60006020601f8301049050919050565b600082821b905092915050565b600060088302620002fa7fffffffffffffffffffffffffffffffffffffffffffffffffffffffffffffffff82620002bb565b620003068683620002bb565b95508019841693508086168417925050509392505050565b6000819050919050565b6000819050919050565b6000620003536200034d62000347846200031e565b62000328565b6200031e565b9050919050565b6000819050919050565b6200036f8362000332565b620003876200037e826200035a565b848454620002c8565b825550505050565b600090565b6200039e6200038f565b620003ab81848462000364565b505050565b5b81811015620003d357620003c760008262000394565b600181019050620003b1565b5050565b601f8211156200042257620003ec8162000296565b620003f784620002ab565b8101602085101562000407578190505b6200041f6200041685620002ab565b830182620003b0565b50505b505050565b600082821c905092915050565b6000620004476000198460080262000427565b1980831691505092915050565b600062000462838362000434565b9150826002028217905092915050565b6200047d82620001f8565b67ffffffffffffffff81111562000499576200049862000203565b5b620004a5825462000261565b620004b2828285620003d7565b600060209050601f831160018114620004ea5760008415620004d5578287015190505b620004e1858262000454565b86555062000551565b601f198416620004fa8662000296565b60005b828110156200052457848901518255600182019150602085019450602081019050620004fd565b8683101562000544578489015162000540601f89168262000434565b8355505b6001600288020188555050505b505050505050565b600073ffffffffffffffffffffffffffffffffffffffff82169050919050565b6000620005868262000559565b9050919050565b620005988162000579565b82525050565b6000602082019050620005b560008301846200058d565b92915050565b61283f80620005cb6000396000f3fe608060405234801561001057600080fd5b50600436106101215760003560e01c8063715018a6116100ad578063b88d4fde11610071578063b88d4fde14610308578063c87b56dd14610324578063d0def52114610354578063e985e9c514610370578063f2fde38b146103a057610121565b8063715018a61461028857806375794a3c146102925780638da5cb5b146102b057806395d89b41146102ce578063a22cb465146102ec57610121565b806323b872dd116100f457806323b872dd146101c057806338e21cce146101dc57806342842e0e1461020c5780636352211e1461022857806370a082311461025857610121565b806301ffc9a71461012657806306fdde0314610156578063081812fc14610174578063095ea7b3146101a4575b600080fd5b610140600480360381019061013b9190611c2b565b6103bc565b60405161014d9190611c73565b60405180910390f35b61015e61041d565b60405161016b9190611d1e565b60405180910390f35b61018e60048036038101906101899190611d76565b6104af565b60405161019b9190611de4565b60405180910390f35b6101be60048036038101906101b99190611e2b565b6104cb565b005b6101da60048036038101906101d59190611e6b565b6104e1565b005b6101f660048036038101906101f19190611ebe565b6105e3565b6040516102039190611c73565b60405180910390f35b61022660048036038101906102219190611e6b565b610603565b005b610242600480360381019061023d9190611d76565b610623565b60405161024f9190611de4565b60405180910390f35b610272600480360381019061026d9190611ebe565b610635565b60405161027f9190611efa565b60405180910390f35b6102906106ef565b005b61029a610703565b6040516102a79190611efa565b60405180910390f35b6102b8610709565b6040516102c59190611de4565b60405180910390f35b6102d6610733565b6040516102e39190611d1e565b60405180910390f35b61030660048036038101906103019190611f41565b6107c5565b005b610322600480360381019061031d91906120b6565b6107db565b005b61033e60048036038101906103399190611d76565b610800565b60405161034b9190611d1e565b60405180910390f35b61036e600480360381019061036991906121da565b610913565b005b61038a60048036038101906103859190612236565b610a34565b6040516103979190611c73565b60405180910390f35b6103ba60048036038101906103b59190611ebe565b610ac8565b005b6000634906490660e01b7bffffffffffffffffffffffffffffffffffffffffffffffffffffffff1916827bffffffffffffffffffffffffffffffffffffffffffffffffffffffff19161480610416575061041582610b4e565b5b9050919050565b60606000805461042c906122a5565b80601f0160208091040260200160405190810160405280929190818152602001828054610458906122a5565b80156104a55780601f1061047a576101008083540402835291602001916104a5565b820191906000526020600020905b81548152906001019060200180831161048857829003601f168201915b5050505050905090565b60006104ba82610c30565b506104c482610cb8565b9050919050565b6104dd82826104d8610cf5565b610cfd565b5050565b600073ffffffffffffffffffffffffffffffffffffffff168273ffffffffffffffffffffffffffffffffffffffff16036105535760006040517f64a0ae9200000000000000000000000000000000000000000000000000000000815260040161054a9190611de4565b60405180910390fd5b60006105678383610562610cf5565b610d0f565b90508373ffffffffffffffffffffffffffffffffffffffff168173ffffffffffffffffffffffffffffffffffffffff16146105dd578382826040517f64283d7b0000000000000000000000000000000000000000000000000000000081526004016105d4939291906122d6565b60405180910390fd5b50505050565b60096020528060005260406000206000915054906101000a900460ff1681565b61061e838383604051806020016040528060008152506107db565b505050565b600061062e82610c30565b9050919050565b60008073ffffffffffffffffffffffffffffffffffffffff168273ffffffffffffffffffffffffffffffffffffffff16036106a85760006040517f89c62b6400000000000000000000000000000000000000000000000000000000815260040161069f9190611de4565b60405180910390fd5b600360008373ffffffffffffffffffffffffffffffffffffffff1673ffffffffffffffffffffffffffffffffffffffff168152602001908152602001600020549050919050565b6106f7610f29565b6107016000610fb0565b565b60085481565b6000600760009054906101000a900473ffffffffffffffffffffffffffffffffffffffff16905090565b606060018054610742906122a5565b80601f016020809104026020016040519081016040528092919081815260200182805461076e906122a5565b80156107bb5780601f10610790576101008083540402835291602001916107bb565b820191906000526020600020905b81548152906001019060200180831161079e57829003601f168201915b5050505050905090565b6107d76107d0610cf5565b8383611076565b5050565b6107e68484846104e1565b6107fa6107f1610cf5565b858585856111e5565b50505050565b606061080b82610c30565b50600060066000848152602001908152602001600020805461082c906122a5565b80601f0160208091040260200160405190810160405280929190818152602001828054610858906122a5565b80156108a55780601f1061087a576101008083540402835291602001916108a5565b820191906000526020600020905b81548152906001019060200180831161088857829003601f168201915b5050505050905060006108b6611396565b905060008151036108cb57819250505061090e565b6000825111156109005780826040516020016108e8929190612349565b6040516020818303038152906040529250505061090e565b610909846113ad565b925050505b919050565b61091b610f29565b600960008373ffffffffffffffffffffffffffffffffffffffff1673ffffffffffffffffffffffffffffffffffffffff16815260200190815260200160002060009054906101000a900460ff16156109a8576040517f08c379a000000000000000000000000000000000000000000000000000000000815260040161099f906123b9565b60405180910390fd5b6109b482600854611416565b6109c060085482611434565b6001600960008473ffffffffffffffffffffffffffffffffffffffff1673ffffffffffffffffffffffffffffffffffffffff16815260200190815260200160002060006101000a81548160ff02191690831515021790555060086000815480929190610a2b90612408565b91905055505050565b6000600560008473ffffffffffffffffffffffffffffffffffffffff1673ffffffffffffffffffffffffffffffffffffffff16815260200190815260200160002060008373ffffffffffffffffffffffffffffffffffffffff1673ffffffffffffffffffffffffffffffffffffffff16815260200190815260200160002060009054906101000a900460ff16905092915050565b610ad0610f29565b600073ffffffffffffffffffffffffffffffffffffffff168173ffffffffffffffffffffffffffffffffffffffff1603610b425760006040517f1e4fbdf7000000000000000000000000000000000000000000000000000000008152600401610b399190611de4565b60405180910390fd5b610b4b81610fb0565b50565b60007f80ac58cd000000000000000000000000000000000000000000000000000000007bffffffffffffffffffffffffffffffffffffffffffffffffffffffff1916827bffffffffffffffffffffffffffffffffffffffffffffffffffffffff19161480610c1957507f5b5e139f000000000000000000000000000000000000000000000000000000007bffffffffffffffffffffffffffffffffffffffffffffffffffffffff1916827bffffffffffffffffffffffffffffffffffffffffffffffffffffffff1916145b80610c295750610c2882611490565b5b9050919050565b600080610c3c836114fa565b9050600073ffffffffffffffffffffffffffffffffffffffff168173ffffffffffffffffffffffffffffffffffffffff1603610caf57826040517f7e273289000000000000000000000000000000000000000000000000000000008152600401610ca69190611efa565b60405180910390fd5b80915050919050565b60006004600083815260200190815260200160002060009054906101000a900473ffffffffffffffffffffffffffffffffffffffff169050919050565b600033905090565b610d0a8383836001611537565b505050565b600080610d1b846114fa565b9050600073ffffffffffffffffffffffffffffffffffffffff168373ffffffffffffffffffffffffffffffffffffffff1614610d5d57610d5c8184866116fc565b5b600073ffffffffffffffffffffffffffffffffffffffff168173ffffffffffffffffffffffffffffffffffffffff1614610dee57610d9f600085600080611537565b6001600360008373ffffffffffffffffffffffffffffffffffffffff1673ffffffffffffffffffffffffffffffffffffffff168152602001908152602001600020600082825403925050819055505b600073ffffffffffffffffffffffffffffffffffffffff168573ffffffffffffffffffffffffffffffffffffffff1614610e71576001600360008773ffffffffffffffffffffffffffffffffffffffff1673ffffffffffffffffffffffffffffffffffffffff168152602001908152602001600020600082825401925050819055505b846002600086815260200190815260200160002060006101000a81548173ffffffffffffffffffffffffffffffffffffffff021916908373ffffffffffffffffffffffffffffffffffffffff160217905550838573ffffffffffffffffffffffffffffffffffffffff168273ffffffffffffffffffffffffffffffffffffffff167fddf252ad1be2c89b69c2b068fc378daa952ba7f163c4a11628f55a4df523b3ef60405160405180910390a4809150509392505050565b610f31610cf5565b73ffffffffffffffffffffffffffffffffffffffff16610f4f610709565b73ffffffffffffffffffffffffffffffffffffffff1614610fae57610f72610cf5565b6040517f118cdaa7000000000000000000000000000000000000000000000000000000008152600401610fa59190611de4565b60405180910390fd5b565b6000600760009054906101000a900473ffffffffffffffffffffffffffffffffffffffff16905081600760006101000a81548173ffffffffffffffffffffffffffffffffffffffff021916908373ffffffffffffffffffffffffffffffffffffffff1602179055508173ffffffffffffffffffffffffffffffffffffffff168173ffffffffffffffffffffffffffffffffffffffff167f8be0079c531659141344cd1fd0a4f28419497f9722a3daafe3b4186f6b6457e060405160405180910390a35050565b600073ffffffffffffffffffffffffffffffffffffffff168273ffffffffffffffffffffffffffffffffffffffff16036110e757816040517f5b08ba180000000000000000000000000000000000000000000000000000000081526004016110de9190611de4565b60405180910390fd5b80600560008573ffffffffffffffffffffffffffffffffffffffff1673ffffffffffffffffffffffffffffffffffffffff16815260200190815260200160002060008473ffffffffffffffffffffffffffffffffffffffff1673ffffffffffffffffffffffffffffffffffffffff16815260200190815260200160002060006101000a81548160ff0219169083151502179055508173ffffffffffffffffffffffffffffffffffffffff168373ffffffffffffffffffffffffffffffffffffffff167f17307eab39ab6107e8899845ad3d59bd9653f200f220920489ca2b5937696c31836040516111d89190611c73565b60405180910390a3505050565b60008373ffffffffffffffffffffffffffffffffffffffff163b111561138f578273ffffffffffffffffffffffffffffffffffffffff1663150b7a02868685856040518563ffffffff1660e01b815260040161124494939291906124a5565b6020604051808303816000875af192505050801561128057506040513d601f19601f8201168201806040525081019061127d9190612506565b60015b611304573d80600081146112b0576040519150601f19603f3d011682016040523d82523d6000602084013e6112b5565b606091505b5060008151036112fc57836040517f64a0ae920000000000000000000000000000000000000000000000000000000081526004016112f39190611de4565b60405180910390fd5b805181602001fd5b63150b7a0260e01b7bffffffffffffffffffffffffffffffffffffffffffffffffffffffff1916817bffffffffffffffffffffffffffffffffffffffffffffffffffffffff19161461138d57836040517f64a0ae920000000000000000000000000000000000000000000000000000000081526004016113849190611de4565b60405180910390fd5b505b5050505050565b606060405180602001604052806000815250905090565b60606113b882610c30565b5060006113c3611396565b905060008151116113e3576040518060200160405280600081525061140e565b806113ed846117c0565b6040516020016113fe929190612349565b6040516020818303038152906040525b915050919050565b61143082826040518060200160405280600081525061188e565b5050565b8060066000848152602001908152602001600020908161145491906126df565b507ff8e1a15aba9398e019f0b49df1a4fde98ee17ae345cb5f6b5e2c27f5033e8ce7826040516114849190611efa565b60405180910390a15050565b60007f01ffc9a7000000000000000000000000000000000000000000000000000000007bffffffffffffffffffffffffffffffffffffffffffffffffffffffff1916827bffffffffffffffffffffffffffffffffffffffffffffffffffffffff1916149050919050565b60006002600083815260200190815260200160002060009054906101000a900473ffffffffffffffffffffffffffffffffffffffff169050919050565b80806115705750600073ffffffffffffffffffffffffffffffffffffffff168273ffffffffffffffffffffffffffffffffffffffff1614155b156116a457600061158084610c30565b9050600073ffffffffffffffffffffffffffffffffffffffff168373ffffffffffffffffffffffffffffffffffffffff16141580156115eb57508273ffffffffffffffffffffffffffffffffffffffff168173ffffffffffffffffffffffffffffffffffffffff1614155b80156115fe57506115fc8184610a34565b155b1561164057826040517fa9fbf51f0000000000000000000000000000000000000000000000000000000081526004016116379190611de4565b60405180910390fd5b81156116a257838573ffffffffffffffffffffffffffffffffffffffff168273ffffffffffffffffffffffffffffffffffffffff167f8c5be1e5ebec7d5bd14f71427d1e84f3dd0314c0f7b2291e5b200ac8c7c3b92560405160405180910390a45b505b836004600085815260200190815260200160002060006101000a81548173ffffffffffffffffffffffffffffffffffffffff021916908373ffffffffffffffffffffffffffffffffffffffff16021790555050505050565b6117078383836118b2565b6117bb57600073ffffffffffffffffffffffffffffffffffffffff168373ffffffffffffffffffffffffffffffffffffffff160361177c57806040517f7e2732890000000000000000000000000000000000000000000000000000000081526004016117739190611efa565b60405180910390fd5b81816040517f177e802f0000000000000000000000000000000000000000000000000000000081526004016117b29291906127b1565b60405180910390fd5b505050565b6060600060016117cf84611973565b01905060008167ffffffffffffffff8111156117ee576117ed611f8b565b5b6040519080825280601f01601f1916602001820160405280156118205781602001600182028036833780820191505090505b509050600082602001820190505b600115611883578080600190039150507f3031323334353637383961626364656600000000000000000000000000000000600a86061a8153600a8581611877576118766127da565b5b0494506000850361182e575b819350505050919050565b6118988383611ac6565b6118ad6118a3610cf5565b60008585856111e5565b505050565b60008073ffffffffffffffffffffffffffffffffffffffff168373ffffffffffffffffffffffffffffffffffffffff161415801561196a57508273ffffffffffffffffffffffffffffffffffffffff168473ffffffffffffffffffffffffffffffffffffffff16148061192b575061192a8484610a34565b5b8061196957508273ffffffffffffffffffffffffffffffffffffffff1661195183610cb8565b73ffffffffffffffffffffffffffffffffffffffff16145b5b90509392505050565b600080600090507a184f03e93ff9f4daa797ed6e38ed64bf6a1f01000000000000000083106119d1577a184f03e93ff9f4daa797ed6e38ed64bf6a1f01000000000000000083816119c7576119c66127da565b5b0492506040810190505b6d04ee2d6d415b85acef81000000008310611a0e576d04ee2d6d415b85acef81000000008381611a0457611a036127da565b5b0492506020810190505b662386f26fc100008310611a3d57662386f26fc100008381611a3357611a326127da565b5b0492506010810190505b6305f5e1008310611a66576305f5e1008381611a5c57611a5b6127da565b5b0492506008810190505b6127108310611a8b576127108381611a8157611a806127da565b5b0492506004810190505b60648310611aae5760648381611aa457611aa36127da565b5b0492506002810190505b600a8310611abd576001810190505b80915050919050565b600073ffffffffffffffffffffffffffffffffffffffff168273ffffffffffffffffffffffffffffffffffffffff1603611b385760006040517f64a0ae92000000000000000000000000000000000000000000000000000000008152600401611b2f9190611de4565b60405180910390fd5b6000611b4683836000610d0f565b9050600073ffffffffffffffffffffffffffffffffffffffff168173ffffffffffffffffffffffffffffffffffffffff1614611bba5760006040517f73c6ac6e000000000000000000000000000000000000000000000000000000008152600401611bb19190611de4565b60405180910390fd5b505050565b6000604051905090565b600080fd5b600080fd5b60007fffffffff0000000000000000000000000000000000000000000000000000000082169050919050565b611c0881611bd3565b8114611c1357600080fd5b50565b600081359050611c2581611bff565b92915050565b600060208284031215611c4157611c40611bc9565b5b6000611c4f84828501611c16565b91505092915050565b60008115159050919050565b611c6d81611c58565b82525050565b6000602082019050611c886000830184611c64565b92915050565b600081519050919050565b600082825260208201905092915050565b60005b83811015611cc8578082015181840152602081019050611cad565b60008484015250505050565b6000601f19601f8301169050919050565b6000611cf082611c8e565b611cfa8185611c99565b9350611d0a818560208601611caa565b611d1381611cd4565b840191505092915050565b60006020820190508181036000830152611d388184611ce5565b905092915050565b6000819050919050565b611d5381611d40565b8114611d5e57600080fd5b50565b600081359050611d7081611d4a565b92915050565b600060208284031215611d8c57611d8b611bc9565b5b6000611d9a84828501611d61565b91505092915050565b600073ffffffffffffffffffffffffffffffffffffffff82169050919050565b6000611dce82611da3565b9050919050565b611dde81611dc3565b82525050565b6000602082019050611df96000830184611dd5565b92915050565b611e0881611dc3565b8114611e1357600080fd5b50565b600081359050611e2581611dff565b92915050565b60008060408385031215611e4257611e41611bc9565b5b6000611e5085828601611e16565b9250506020611e6185828601611d61565b9150509250929050565b600080600060608486031215611e8457611e83611bc9565b5b6000611e9286828701611e16565b9350506020611ea386828701611e16565b9250506040611eb486828701611d61565b9150509250925092565b600060208284031215611ed457611ed3611bc9565b5b6000611ee284828501611e16565b91505092915050565b611ef481611d40565b82525050565b6000602082019050611f0f6000830184611eeb565b92915050565b611f1e81611c58565b8114611f2957600080fd5b50565b600081359050611f3b81611f15565b92915050565b60008060408385031215611f5857611f57611bc9565b5b6000611f6685828601611e16565b9250506020611f7785828601611f2c565b9150509250929050565b600080fd5b600080fd5b7f4e487b7100000000000000000000000000000000000000000000000000000000600052604160045260246000fd5b611fc382611cd4565b810181811067ffffffffffffffff82111715611fe257611fe1611f8b565b5b80604052505050565b6000611ff5611bbf565b90506120018282611fba565b919050565b600067ffffffffffffffff82111561202157612020611f8b565b5b61202a82611cd4565b9050602081019050919050565b82818337600083830152505050565b600061205961205484612006565b611feb565b90508281526020810184848401111561207557612074611f86565b5b612080848285612037565b509392505050565b600082601f83011261209d5761209c611f81565b5b81356120ad848260208601612046565b91505092915050565b600080600080608085870312156120d0576120cf611bc9565b5b60006120de87828801611e16565b94505060206120ef87828801611e16565b935050604061210087828801611d61565b925050606085013567ffffffffffffffff81111561212157612120611bce565b5b61212d87828801612088565b91505092959194509250565b600067ffffffffffffffff82111561215457612153611f8b565b5b61215d82611cd4565b9050602081019050919050565b600061217d61217884612139565b611feb565b90508281526020810184848401111561219957612198611f86565b5b6121a4848285612037565b509392505050565b600082601f8301126121c1576121c0611f81565b5b81356121d184826020860161216a565b91505092915050565b600080604083850312156121f1576121f0611bc9565b5b60006121ff85828601611e16565b925050602083013567ffffffffffffffff8111156122205761221f611bce565b5b61222c858286016121ac565b9150509250929050565b6000806040838503121561224d5761224c611bc9565b5b600061225b85828601611e16565b925050602061226c85828601611e16565b9150509250929050565b7f4e487b7100000000000000000000000000000000000000000000000000000000600052602260045260246000fd5b600060028204905060018216806122bd57607f821691505b6020821081036122d0576122cf612276565b5b50919050565b60006060820190506122eb6000830186611dd5565b6122f86020830185611eeb565b6123056040830184611dd5565b949350505050565b600081905092915050565b600061232382611c8e565b61232d818561230d565b935061233d818560208601611caa565b80840191505092915050565b60006123558285612318565b91506123618284612318565b91508190509392505050565b7f416c7265616479206d696e746564000000000000000000000000000000000000600082015250565b60006123a3600e83611c99565b91506123ae8261236d565b602082019050919050565b600060208201905081810360008301526123d281612396565b9050919050565b7f4e487b7100000000000000000000000000000000000000000000000000000000600052601160045260246000fd5b600061241382611d40565b91507fffffffffffffffffffffffffffffffffffffffffffffffffffffffffffffffff8203612445576124446123d9565b5b600182019050919050565b600081519050919050565b600082825260208201905092915050565b600061247782612450565b612481818561245b565b9350612491818560208601611caa565b61249a81611cd4565b840191505092915050565b60006080820190506124ba6000830187611dd5565b6124c76020830186611dd5565b6124d46040830185611eeb565b81810360608301526124e6818461246c565b905095945050505050565b60008151905061250081611bff565b92915050565b60006020828403121561251c5761251b611bc9565b5b600061252a848285016124f1565b91505092915050565b60008190508160005260206000209050919050565b60006020601f8301049050919050565b600082821b905092915050565b6000600883026125957fffffffffffffffffffffffffffffffffffffffffffffffffffffffffffffffff82612558565b61259f8683612558565b95508019841693508086168417925050509392505050565b6000819050919050565b60006125dc6125d76125d284611d40565b6125b7565b611d40565b9050919050565b6000819050919050565b6125f6836125c1565b61260a612602826125e3565b848454612565565b825550505050565b600090565b61261f612612565b61262a8184846125ed565b505050565b5b8181101561264e57612643600082612617565b600181019050612630565b5050565b601f8211156126935761266481612533565b61266d84612548565b8101602085101561267c578190505b61269061268885612548565b83018261262f565b50505b505050565b600082821c905092915050565b60006126b660001984600802612698565b1980831691505092915050565b60006126cf83836126a5565b9150826002028217905092915050565b6126e882611c8e565b67ffffffffffffffff81111561270157612700611f8b565b5b61270b82546122a5565b612716828285612652565b600060209050601f8311600181146127495760008415612737578287015190505b61274185826126c3565b8655506127a9565b601f19841661275786612533565b60005b8281101561277f5784890151825560018201915060208501945060208101905061275a565b8683101561279c5784890151612798601f8916826126a5565b8355505b6001600288020188555050505b505050505050565b60006040820190506127c66000830185611dd5565b6127d36020830184611eeb565b9392505050565b7f4e487b7100000000000000000000000000000000000000000000000000000000600052601260045260246000fdfea26469706673582212200ef0c83e33cb18d794c927f62c8853ebfa5beae57b0907cfa3a04b1b7c8781c664736f6c63430008180033",
  "linkReferences": {},
  "deployedLinkReferences": {}
}