{
  "_format": "hh-sol-artifact-1",
  "contractName": "Marketplace",
  "sourceName": "contracts/Marketplace.sol",
  "abi": [
    {
      "inputs": [],
      "stateMutability": "nonpayable",
      "type": "constructor"
    },
    {
      "inputs": [
        {
          "internalType": "address",
          "name": "owner",
          "type": "address"
        }
      ],
      "name": "OwnableInvalidOwner",
      "type": "error"
    },
    {
      "inputs": [
        {
          "internalType": "address",
          "name": "account",
          "type": "address"
        }
      ],
      "name": "OwnableUnauthorizedAccount",
      "type": "error"
    },
    {
      "anonymous": false,
      "inputs": [
        {
          "indexed": true,
          "internalType": "address",
          "name": "previousOwner",
          "type": "address"
        },
        {
          "indexed": true,
          "internalType": "address",
          "name": "newOwner",
          "type": "address"
        }
      ],
      "name": "OwnershipTransferred",
      "type": "event"
    },
    {
      "anonymous": false,
      "inputs": [
        {
          "indexed": true,
          "internalType": "uint256",
          "name": "id",
          "type": "uint256"
        },
        {
          "indexed": false,
          "internalType": "string",
          "name": "name",
          "type": "string"
        },
        {
          "indexed": false,
          "internalType": "uint256",
          "name": "price",
          "type": "uint256"
        },
        {
          "indexed": true,
          "internalType": "address",
          "name": "owner",
          "type": "address"
        }
      ],
      "name": "ProductListed",
      "type": "event"
    },
    {
      "anonymous": false,
      "inputs": [
        {
          "indexed": true,
          "internalType": "uint256",
          "name": "id",
          "type": "uint256"
        },
        {
          "indexed": true,
          "internalType": "address",
          "name": "buyer",
          "type": "address"
        },
        {
          "indexed": false,
          "internalType": "uint256",
          "name": "price",
          "type": "uint256"
        }
      ],
      "name": "ProductPurchased",
      "type": "event"
    },
    {
      "anonymous": false,
      "inputs": [
        {
          "indexed": true,
          "internalType": "address",
          "name": "vendor",
          "type": "address"
        }
      ],
      "name": "VendorRegistered",
      "type": "event"
    },
    {
      "inputs": [
        {
          "internalType": "uint256",
          "name": "productId",
          "type": "uint256"
        }
      ],
      "name": "buyProduct",
      "outputs": [],
      "stateMutability": "payable",
      "type": "function"
    },
    {
      "inputs": [
        {
          "internalType": "address",
          "name": "vendor",
          "type": "address"
        }
      ],
      "name": "getVendorProducts",
      "outputs": [
        {
          "internalType": "uint256[]",
          "name": "",
          "type": "uint256[]"
        }
      ],
      "stateMutability": "view",
      "type": "function"
    },
    {
      "inputs": [
        {
          "internalType": "string",
          "name": "name",
          "type": "string"
        },
        {
          "internalType": "uint256",
          "name": "price",
          "type": "uint256"
        }
      ],
      "name": "listProduct",
      "outputs": [],
      "stateMutability": "nonpayable",
      "type": "function"
    },
    {
      "inputs": [],
      "name": "nextProductId",
      "outputs": [
        {
          "internalType": "uint256",
          "name": "",
          "type": "uint256"
        }
      ],
      "stateMutability": "view",
      "type": "function"
    },
    {
      "inputs": [],
      "name": "owner",
      "outputs": [
        {
          "internalType": "address",
          "name": "",
          "type": "address"
        }
      ],
      "stateMutability": "view",
      "type": "function"
    },
    {
      "inputs": [
        {
          "internalType": "uint256",
          "name": "",
          "type": "uint256"
        }
      ],
      "name": "products",
      "outputs": [
        {
          "internalType": "uint256",
          "name": "id",
          "type": "uint256"
        },
        {
          "internalType": "string",
          "name": "name",
          "type": "string"
        },
        {
          "internalType": "uint256",
          "name": "price",
          "type": "uint256"
        },
        {
          "internalType": "address",
          "name": "owner",
          "type": "address"
        },
        {
          "internalType": "bool",
          "name": "sold",
          "type": "bool"
        }
      ],
      "stateMutability": "view",
      "type": "function"
    },
    {
      "inputs": [],
      "name": "registerVendor",
      "outputs": [],
      "stateMutability": "nonpayable",
      "type": "function"
    },
    {
      "inputs": [],
      "name": "renounceOwnership",
      "outputs": [],
      "stateMutability": "nonpayable",
      "type": "function"
    },
    {
      "inputs": [
        {
          "internalType": "address",
          "name": "newOwner",
          "type": "address"
        }
      ],
      "name": "transferOwnership",
      "outputs": [],
      "stateMutability": "nonpayable",
      "type": "function"
    },
    {
      "inputs": [
        {
          "internalType": "address",
          "name": "",
          "type": "address"
        }
      ],
      "name": "vendors",
      "outputs": [
        {
          "internalType": "bool",
          "name": "registered",
          "type": "bool"
        }
      ],
      "stateMutability": "view",
      "type": "function"
    }
  ],
  "bytecode": "0x60806040523480156200001157600080fd5b5033600073ffffffffffffffffffffffffffffffffffffffff168173ffffffffffffffffffffffffffffffffffffffff1603620000885760006040517f1e4fbdf70000000000000000000000000000000000000000000000000000000081526004016200007f9190620001a9565b60405180910390fd5b6200009981620000a060201b60201c565b50620001c6565b60008060009054906101000a900473ffffffffffffffffffffffffffffffffffffffff169050816000806101000a81548173ffffffffffffffffffffffffffffffffffffffff021916908373ffffffffffffffffffffffffffffffffffffffff1602179055508173ffffffffffffffffffffffffffffffffffffffff168173ffffffffffffffffffffffffffffffffffffffff167f8be0079c531659141344cd1fd0a4f28419497f9722a3daafe3b4186f6b6457e060405160405180910390a35050565b600073ffffffffffffffffffffffffffffffffffffffff82169050919050565b6000620001918262000164565b9050919050565b620001a38162000184565b82525050565b6000602082019050620001c0600083018462000198565b92915050565b61162280620001d66000396000f3fe6080604052600436106100915760003560e01c80638642269e116100595780638642269e1461019357806389a1b523146101af5780638da5cb5b146101d8578063e66f3b4f14610203578063f2fde38b1461021a57610091565b806327e30c36146100965780632887c70b146100d35780634de91a6314610110578063715018a61461013b5780637acc0b2014610152575b600080fd5b3480156100a257600080fd5b506100bd60048036038101906100b89190610bd6565b610243565b6040516100ca9190610c1e565b60405180910390f35b3480156100df57600080fd5b506100fa60048036038101906100f59190610bd6565b61026e565b6040516101079190610d01565b60405180910390f35b34801561011c57600080fd5b50610125610308565b6040516101329190610d32565b60405180910390f35b34801561014757600080fd5b5061015061030e565b005b34801561015e57600080fd5b5061017960048036038101906101749190610d79565b610322565b60405161018a959493929190610e45565b60405180910390f35b6101ad60048036038101906101a89190610d79565b61040d565b005b3480156101bb57600080fd5b506101d660048036038101906101d19190610fd4565b6105a0565b005b3480156101e457600080fd5b506101ed610833565b6040516101fa9190611030565b60405180910390f35b34801561020f57600080fd5b5061021861085c565b005b34801561022657600080fd5b50610241600480360381019061023c9190610bd6565b61098b565b005b60016020528060005260406000206000915090508060000160009054906101000a900460ff16905081565b6060600160008373ffffffffffffffffffffffffffffffffffffffff1673ffffffffffffffffffffffffffffffffffffffff1681526020019081526020016000206001018054806020026020016040519081016040528092919081815260200182805480156102fc57602002820191906000526020600020905b8154815260200190600101908083116102e8575b50505050509050919050565b60035481565b610316610a11565b6103206000610a98565b565b600260205280600052604060002060009150905080600001549080600101805461034b9061107a565b80601f01602080910402602001604051908101604052809291908181526020018280546103779061107a565b80156103c45780601f10610399576101008083540402835291602001916103c4565b820191906000526020600020905b8154815290600101906020018083116103a757829003601f168201915b5050505050908060020154908060030160009054906101000a900473ffffffffffffffffffffffffffffffffffffffff16908060030160149054906101000a900460ff16905085565b60006002600083815260200190815260200160002090508060030160149054906101000a900460ff1615610476576040517f08c379a000000000000000000000000000000000000000000000000000000000815260040161046d906110f7565b60405180910390fd5b80600201543410156104bd576040517f08c379a00000000000000000000000000000000000000000000000000000000081526004016104b490611163565b60405180910390fd5b60018160030160146101000a81548160ff0219169083151502179055508060030160009054906101000a900473ffffffffffffffffffffffffffffffffffffffff1673ffffffffffffffffffffffffffffffffffffffff166108fc82600201549081150290604051600060405180830381858888f19350505050158015610548573d6000803e3d6000fd5b503373ffffffffffffffffffffffffffffffffffffffff16827fa530f889d7f1bd9a73028e48944ca013ab2c6624a31e3fa26f923f4bb719abd583600201546040516105949190610d32565b60405180910390a35050565b600160003373ffffffffffffffffffffffffffffffffffffffff1673ffffffffffffffffffffffffffffffffffffffff16815260200190815260200160002060000160009054906101000a900460ff1661062f576040517f08c379a0000000000000000000000000000000000000000000000000000000008152600401610626906111cf565b60405180910390fd5b60008111610672576040517f08c379a00000000000000000000000000000000000000000000000000000000081526004016106699061123b565b60405180910390fd5b6000600360008154809291906106879061128a565b9190505590506040518060a001604052808281526020018481526020018381526020013373ffffffffffffffffffffffffffffffffffffffff16815260200160001515815250600260008381526020019081526020016000206000820151816000015560208201518160010190816106ff919061147e565b506040820151816002015560608201518160030160006101000a81548173ffffffffffffffffffffffffffffffffffffffff021916908373ffffffffffffffffffffffffffffffffffffffff16021790555060808201518160030160146101000a81548160ff021916908315150217905550905050600160003373ffffffffffffffffffffffffffffffffffffffff1673ffffffffffffffffffffffffffffffffffffffff1681526020019081526020016000206001018190806001815401808255809150506001900390600052602060002001600090919091909150553373ffffffffffffffffffffffffffffffffffffffff16817f12f74df6387ef2d51265f7b8c12c28c83ba3a6a78ad217f3846ec9c2b1fad92f8585604051610826929190611550565b60405180910390a3505050565b60008060009054906101000a900473ffffffffffffffffffffffffffffffffffffffff16905090565b600160003373ffffffffffffffffffffffffffffffffffffffff1673ffffffffffffffffffffffffffffffffffffffff16815260200190815260200160002060000160009054906101000a900460ff16156108ec576040517f08c379a00000000000000000000000000000000000000000000000000000000081526004016108e3906115cc565b60405180910390fd5b60018060003373ffffffffffffffffffffffffffffffffffffffff1673ffffffffffffffffffffffffffffffffffffffff16815260200190815260200160002060000160006101000a81548160ff0219169083151502179055503373ffffffffffffffffffffffffffffffffffffffff167f6b151c6084a25b1831f4322980152980cbe16e87815c95af76a1ef3b1255ec4860405160405180910390a2565b610993610a11565b600073ffffffffffffffffffffffffffffffffffffffff168173ffffffffffffffffffffffffffffffffffffffff1603610a055760006040517f1e4fbdf70000000000000000000000000000000000000000000000000000000081526004016109fc9190611030565b60405180910390fd5b610a0e81610a98565b50565b610a19610b5c565b73ffffffffffffffffffffffffffffffffffffffff16610a37610833565b73ffffffffffffffffffffffffffffffffffffffff1614610a9657610a5a610b5c565b6040517f118cdaa7000000000000000000000000000000000000000000000000000000008152600401610a8d9190611030565b60405180910390fd5b565b60008060009054906101000a900473ffffffffffffffffffffffffffffffffffffffff169050816000806101000a81548173ffffffffffffffffffffffffffffffffffffffff021916908373ffffffffffffffffffffffffffffffffffffffff1602179055508173ffffffffffffffffffffffffffffffffffffffff168173ffffffffffffffffffffffffffffffffffffffff167f8be0079c531659141344cd1fd0a4f28419497f9722a3daafe3b4186f6b6457e060405160405180910390a35050565b600033905090565b6000604051905090565b600080fd5b600080fd5b600073ffffffffffffffffffffffffffffffffffffffff82169050919050565b6000610ba382610b78565b9050919050565b610bb381610b98565b8114610bbe57600080fd5b50565b600081359050610bd081610baa565b92915050565b600060208284031215610bec57610beb610b6e565b5b6000610bfa84828501610bc1565b91505092915050565b60008115159050919050565b610c1881610c03565b82525050565b6000602082019050610c336000830184610c0f565b92915050565b600081519050919050565b600082825260208201905092915050565b6000819050602082019050919050565b6000819050919050565b610c7881610c65565b82525050565b6000610c8a8383610c6f565b60208301905092915050565b6000602082019050919050565b6000610cae82610c39565b610cb88185610c44565b9350610cc383610c55565b8060005b83811015610cf4578151610cdb8882610c7e565b9750610ce683610c96565b925050600181019050610cc7565b5085935050505092915050565b60006020820190508181036000830152610d1b8184610ca3565b905092915050565b610d2c81610c65565b82525050565b6000602082019050610d476000830184610d23565b92915050565b610d5681610c65565b8114610d6157600080fd5b50565b600081359050610d7381610d4d565b92915050565b600060208284031215610d8f57610d8e610b6e565b5b6000610d9d84828501610d64565b91505092915050565b600081519050919050565b600082825260208201905092915050565b60005b83811015610de0578082015181840152602081019050610dc5565b60008484015250505050565b6000601f19601f8301169050919050565b6000610e0882610da6565b610e128185610db1565b9350610e22818560208601610dc2565b610e2b81610dec565b840191505092915050565b610e3f81610b98565b82525050565b600060a082019050610e5a6000830188610d23565b8181036020830152610e6c8187610dfd565b9050610e7b6040830186610d23565b610e886060830185610e36565b610e956080830184610c0f565b9695505050505050565b600080fd5b600080fd5b7f4e487b7100000000000000000000000000000000000000000000000000000000600052604160045260246000fd5b610ee182610dec565b810181811067ffffffffffffffff82111715610f0057610eff610ea9565b5b80604052505050565b6000610f13610b64565b9050610f1f8282610ed8565b919050565b600067ffffffffffffffff821115610f3f57610f3e610ea9565b5b610f4882610dec565b9050602081019050919050565b82818337600083830152505050565b6000610f77610f7284610f24565b610f09565b905082815260208101848484011115610f9357610f92610ea4565b5b610f9e848285610f55565b509392505050565b600082601f830112610fbb57610fba610e9f565b5b8135610fcb848260208601610f64565b91505092915050565b60008060408385031215610feb57610fea610b6e565b5b600083013567ffffffffffffffff81111561100957611008610b73565b5b61101585828601610fa6565b925050602061102685828601610d64565b9150509250929050565b60006020820190506110456000830184610e36565b92915050565b7f4e487b7100000000000000000000000000000000000000000000000000000000600052602260045260246000fd5b6000600282049050600182168061109257607f821691505b6020821081036110a5576110a461104b565b5b50919050565b7f416c726561647920736f6c640000000000000000000000000000000000000000600082015250565b60006110e1600c83610db1565b91506110ec826110ab565b602082019050919050565b60006020820190508181036000830152611110816110d4565b9050919050565b7f496e73756666696369656e74207061796d656e74000000000000000000000000600082015250565b600061114d601483610db1565b915061115882611117565b602082019050919050565b6000602082019050818103600083015261117c81611140565b9050919050565b7f4e6f74206120726567697374657265642076656e646f72000000000000000000600082015250565b60006111b9601783610db1565b91506111c482611183565b602082019050919050565b600060208201905081810360008301526111e8816111ac565b9050919050565b7f5072696365206d75737420626520706f73697469766500000000000000000000600082015250565b6000611225601683610db1565b9150611230826111ef565b602082019050919050565b6000602082019050818103600083015261125481611218565b9050919050565b7f4e487b7100000000000000000000000000000000000000000000000000000000600052601160045260246000fd5b600061129582610c65565b91507fffffffffffffffffffffffffffffffffffffffffffffffffffffffffffffffff82036112c7576112c661125b565b5b600182019050919050565b60008190508160005260206000209050919050565b60006020601f8301049050919050565b600082821b905092915050565b6000600883026113347fffffffffffffffffffffffffffffffffffffffffffffffffffffffffffffffff826112f7565b61133e86836112f7565b95508019841693508086168417925050509392505050565b6000819050919050565b600061137b61137661137184610c65565b611356565b610c65565b9050919050565b6000819050919050565b61139583611360565b6113a96113a182611382565b848454611304565b825550505050565b600090565b6113be6113b1565b6113c981848461138c565b505050565b5b818110156113ed576113e26000826113b6565b6001810190506113cf565b5050565b601f82111561143257611403816112d2565b61140c846112e7565b8101602085101561141b578190505b61142f611427856112e7565b8301826113ce565b50505b505050565b600082821c905092915050565b600061145560001984600802611437565b1980831691505092915050565b600061146e8383611444565b9150826002028217905092915050565b61148782610da6565b67ffffffffffffffff8111156114a05761149f610ea9565b5b6114aa825461107a565b6114b58282856113f1565b600060209050601f8311600181146114e857600084156114d6578287015190505b6114e08582611462565b865550611548565b601f1984166114f6866112d2565b60005b8281101561151e578489015182556001820191506020850194506020810190506114f9565b8683101561153b5784890151611537601f891682611444565b8355505b6001600288020188555050505b505050505050565b6000604082019050818103600083015261156a8185610dfd565b90506115796020830184610d23565b9392505050565b7f416c726561647920726567697374657265640000000000000000000000000000600082015250565b60006115b6601283610db1565b91506115c182611580565b602082019050919050565b600060208201905081810360008301526115e5816115a9565b905091905056fea26469706673582212205c548ca1b52c78b74d412fe624842862325efd70e57b53d91e610ac377a6759a64736f6c63430008180033",
  "linkReferences": {},
  "deployedLinkReferences": {}
}